{
	"contracts/FundMe.sol": {
		"FundMe": {
			"abi": [
				{
					"inputs": [],
					"stateMutability": "nonpayable",
					"type": "constructor"
				},
				{
					"stateMutability": "payable",
					"type": "fallback"
				},
				{
					"inputs": [],
					"name": "MINIMUM_USD",
					"outputs": [
						{
							"internalType": "uint256",
							"name": "",
							"type": "uint256"
						}
					],
					"stateMutability": "view",
					"type": "function"
				},
				{
					"inputs": [
						{
							"internalType": "address",
							"name": "funder",
							"type": "address"
						}
					],
					"name": "addressToAmountFunded",
					"outputs": [
						{
							"internalType": "uint256",
							"name": "amountFunded",
							"type": "uint256"
						}
					],
					"stateMutability": "view",
					"type": "function"
				},
				{
					"inputs": [],
					"name": "fund",
					"outputs": [],
					"stateMutability": "payable",
					"type": "function"
				},
				{
					"inputs": [
						{
							"internalType": "uint256",
							"name": "",
							"type": "uint256"
						}
					],
					"name": "funders",
					"outputs": [
						{
							"internalType": "address",
							"name": "",
							"type": "address"
						}
					],
					"stateMutability": "view",
					"type": "function"
				},
				{
					"inputs": [],
					"name": "i_Owner",
					"outputs": [
						{
							"internalType": "address",
							"name": "",
							"type": "address"
						}
					],
					"stateMutability": "view",
					"type": "function"
				},
				{
					"inputs": [],
					"name": "withdraw",
					"outputs": [],
					"stateMutability": "nonpayable",
					"type": "function"
				},
				{
					"stateMutability": "payable",
					"type": "receive"
				}
			],
			"devdoc": {
				"kind": "dev",
				"methods": {},
				"version": 1
			},
			"evm": {
				"assembly": "    /* \"contracts/FundMe.sol\":131:1660  contract FundMe {... */\n  mstore(0x40, 0xa0)\n    /* \"contracts/FundMe.sol\":398:448  constructor(){... */\n  callvalue\n  dup1\n  iszero\n  tag_1\n  jumpi\n  0x00\n  dup1\n  revert\ntag_1:\n  pop\n    /* \"contracts/FundMe.sol\":431:441  msg.sender */\n  caller\n    /* \"contracts/FundMe.sol\":421:441  i_Owner = msg.sender */\n  0xffffffffffffffffffffffffffffffffffffffff\n  and\n  0x80\n  dup2\n  0xffffffffffffffffffffffffffffffffffffffff\n  and\n  dup2\n  mstore\n  pop\n  pop\n    /* \"contracts/FundMe.sol\":131:1660  contract FundMe {... */\n  mload(0x80)\n  codecopy(0x00, dataOffset(sub_0), dataSize(sub_0))\n  0x00\n  assignImmutable(\"0xcc143a676b82d5e07b2c9d57717b403ab3c58caa273a42cdb95b15980141a86c\")\n  return(0x00, dataSize(sub_0))\nstop\n\nsub_0: assembly {\n        /* \"contracts/FundMe.sol\":131:1660  contract FundMe {... */\n      mstore(0x40, 0x80)\n      jumpi(tag_1, lt(calldatasize, 0x04))\n      shr(0xe0, calldataload(0x00))\n      dup1\n      0x3ccfd60b\n      eq\n      tag_3\n      jumpi\n      dup1\n      0x3e47d6f3\n      eq\n      tag_4\n      jumpi\n      dup1\n      0x6b69a592\n      eq\n      tag_5\n      jumpi\n      dup1\n      0xb60d4288\n      eq\n      tag_6\n      jumpi\n      dup1\n      0xdc0d3dff\n      eq\n      tag_7\n      jumpi\n      dup1\n      0xe667b0bf\n      eq\n      tag_8\n      jumpi\n      jump(tag_2)\n    tag_1:\n      jumpi(tag_2, calldatasize)\n        /* \"contracts/FundMe.sol\":1587:1593  fund() */\n      tag_11\n        /* \"contracts/FundMe.sol\":1587:1591  fund */\n      tag_12\n        /* \"contracts/FundMe.sol\":1587:1593  fund() */\n      jump\t// in\n    tag_11:\n        /* \"contracts/FundMe.sol\":131:1660  contract FundMe {... */\n      stop\n    tag_2:\n        /* \"contracts/FundMe.sol\":1644:1650  fund() */\n      tag_15\n        /* \"contracts/FundMe.sol\":1644:1648  fund */\n      tag_12\n        /* \"contracts/FundMe.sol\":1644:1650  fund() */\n      jump\t// in\n    tag_15:\n        /* \"contracts/FundMe.sol\":131:1660  contract FundMe {... */\n      stop\n        /* \"contracts/FundMe.sol\":690:1328  function withdraw() public {... */\n    tag_3:\n      callvalue\n      dup1\n      iszero\n      tag_16\n      jumpi\n      0x00\n      dup1\n      revert\n    tag_16:\n      pop\n      tag_17\n      tag_18\n      jump\t// in\n    tag_17:\n      stop\n        /* \"contracts/FundMe.sol\":275:351  mapping (address funder =>uint256 amountFunded) public addressToAmountFunded */\n    tag_4:\n      callvalue\n      dup1\n      iszero\n      tag_19\n      jumpi\n      0x00\n      dup1\n      revert\n    tag_19:\n      pop\n      tag_20\n      0x04\n      dup1\n      calldatasize\n      sub\n      dup2\n      add\n      swap1\n      tag_21\n      swap2\n      swap1\n      tag_22\n      jump\t// in\n    tag_21:\n      tag_23\n      jump\t// in\n    tag_20:\n      mload(0x40)\n      tag_24\n      swap2\n      swap1\n      tag_25\n      jump\t// in\n    tag_24:\n      mload(0x40)\n      dup1\n      swap2\n      sub\n      swap1\n      return\n        /* \"contracts/FundMe.sol\":192:239  uint256 public constant MINIMUM_USD = 50 * 1e18 */\n    tag_5:\n      callvalue\n      dup1\n      iszero\n      tag_26\n      jumpi\n      0x00\n      dup1\n      revert\n    tag_26:\n      pop\n      tag_27\n      tag_28\n      jump\t// in\n    tag_27:\n      mload(0x40)\n      tag_29\n      swap2\n      swap1\n      tag_25\n      jump\t// in\n    tag_29:\n      mload(0x40)\n      dup1\n      swap2\n      sub\n      swap1\n      return\n        /* \"contracts/FundMe.sol\":454:684  function fund()public payable {... */\n    tag_6:\n      tag_30\n      tag_12\n      jump\t// in\n    tag_30:\n      stop\n        /* \"contracts/FundMe.sol\":245:269  address[] public funders */\n    tag_7:\n      callvalue\n      dup1\n      iszero\n      tag_31\n      jumpi\n      0x00\n      dup1\n      revert\n    tag_31:\n      pop\n      tag_32\n      0x04\n      dup1\n      calldatasize\n      sub\n      dup2\n      add\n      swap1\n      tag_33\n      swap2\n      swap1\n      tag_34\n      jump\t// in\n    tag_33:\n      tag_35\n      jump\t// in\n    tag_32:\n      mload(0x40)\n      tag_36\n      swap2\n      swap1\n      tag_37\n      jump\t// in\n    tag_36:\n      mload(0x40)\n      dup1\n      swap2\n      sub\n      swap1\n      return\n        /* \"contracts/FundMe.sol\":358:391  address public  immutable i_Owner */\n    tag_8:\n      callvalue\n      dup1\n      iszero\n      tag_38\n      jumpi\n      0x00\n      dup1\n      revert\n    tag_38:\n      pop\n      tag_39\n      tag_40\n      jump\t// in\n    tag_39:\n      mload(0x40)\n      tag_41\n      swap2\n      swap1\n      tag_37\n      jump\t// in\n    tag_41:\n      mload(0x40)\n      dup1\n      swap2\n      sub\n      swap1\n      return\n        /* \"contracts/FundMe.sol\":454:684  function fund()public payable {... */\n    tag_12:\n        /* \"contracts/FundMe.sol\":230:239  50 * 1e18 */\n      0x02b5e3af16b1880000\n        /* \"contracts/FundMe.sol\":502:531  msg.value.getConversionRate() */\n      tag_43\n        /* \"contracts/FundMe.sol\":502:511  msg.value */\n      callvalue\n        /* \"contracts/FundMe.sol\":502:529  msg.value.getConversionRate */\n      tag_44\n        /* \"contracts/FundMe.sol\":502:531  msg.value.getConversionRate() */\n      jump\t// in\n    tag_43:\n        /* \"contracts/FundMe.sol\":502:545  msg.value.getConversionRate() > MINIMUM_USD */\n      gt\n        /* \"contracts/FundMe.sol\":494:587  require(msg.value.getConversionRate() > MINIMUM_USD,\"The minimum amount of value is not met\") */\n      tag_45\n      jumpi\n      mload(0x40)\n      0x08c379a000000000000000000000000000000000000000000000000000000000\n      dup2\n      mstore\n      0x04\n      add\n      tag_46\n      swap1\n      tag_47\n      jump\t// in\n    tag_46:\n      mload(0x40)\n      dup1\n      swap2\n      sub\n      swap1\n      revert\n    tag_45:\n        /* \"contracts/FundMe.sol\":597:604  funders */\n      0x00\n        /* \"contracts/FundMe.sol\":610:620  msg.sender */\n      caller\n        /* \"contracts/FundMe.sol\":597:621  funders.push(msg.sender) */\n      swap1\n      dup1\n      0x01\n      dup2\n      sload\n      add\n      dup1\n      dup3\n      sstore\n      dup1\n      swap2\n      pop\n      pop\n      0x01\n      swap1\n      sub\n      swap1\n      0x00\n      mstore\n      keccak256(0x00, 0x20)\n      add\n      0x00\n      swap1\n      swap2\n      swap1\n      swap2\n      swap1\n      swap2\n      0x0100\n      exp\n      dup2\n      sload\n      dup2\n      0xffffffffffffffffffffffffffffffffffffffff\n      mul\n      not\n      and\n      swap1\n      dup4\n      0xffffffffffffffffffffffffffffffffffffffff\n      and\n      mul\n      or\n      swap1\n      sstore\n      pop\n        /* \"contracts/FundMe.sol\":668:677  msg.value */\n      callvalue\n        /* \"contracts/FundMe.sol\":631:652  addressToAmountFunded */\n      0x01\n        /* \"contracts/FundMe.sol\":631:664  addressToAmountFunded[msg.sender] */\n      0x00\n        /* \"contracts/FundMe.sol\":653:663  msg.sender */\n      caller\n        /* \"contracts/FundMe.sol\":631:664  addressToAmountFunded[msg.sender] */\n      0xffffffffffffffffffffffffffffffffffffffff\n      and\n      0xffffffffffffffffffffffffffffffffffffffff\n      and\n      dup2\n      mstore\n      0x20\n      add\n      swap1\n      dup2\n      mstore\n      0x20\n      add\n      0x00\n      keccak256\n      0x00\n        /* \"contracts/FundMe.sol\":631:677  addressToAmountFunded[msg.sender] += msg.value */\n      dup3\n      dup3\n      sload\n      tag_49\n      swap2\n      swap1\n      tag_50\n      jump\t// in\n    tag_49:\n      swap3\n      pop\n      pop\n      dup2\n      swap1\n      sstore\n      pop\n        /* \"contracts/FundMe.sol\":454:684  function fund()public payable {... */\n      jump\t// out\n        /* \"contracts/FundMe.sol\":690:1328  function withdraw() public {... */\n    tag_18:\n        /* \"contracts/FundMe.sol\":732:751  uint256 funderIndex */\n      0x00\n        /* \"contracts/FundMe.sol\":728:920  for(uint256 funderIndex = 0 ; funderIndex < funders.length; funderIndex++)... */\n    tag_52:\n        /* \"contracts/FundMe.sol\":772:779  funders */\n      0x00\n        /* \"contracts/FundMe.sol\":772:786  funders.length */\n      dup1\n      sload\n      swap1\n      pop\n        /* \"contracts/FundMe.sol\":758:769  funderIndex */\n      dup2\n        /* \"contracts/FundMe.sol\":758:786  funderIndex < funders.length */\n      lt\n        /* \"contracts/FundMe.sol\":728:920  for(uint256 funderIndex = 0 ; funderIndex < funders.length; funderIndex++)... */\n      iszero\n      tag_53\n      jumpi\n        /* \"contracts/FundMe.sol\":825:839  address funder */\n      0x00\n        /* \"contracts/FundMe.sol\":842:849  funders */\n      dup1\n        /* \"contracts/FundMe.sol\":850:861  funderIndex */\n      dup3\n        /* \"contracts/FundMe.sol\":842:862  funders[funderIndex] */\n      dup2\n      sload\n      dup2\n      lt\n      tag_55\n      jumpi\n      tag_56\n      tag_57\n      jump\t// in\n    tag_56:\n    tag_55:\n      swap1\n      0x00\n      mstore\n      keccak256(0x00, 0x20)\n      add\n      0x00\n      swap1\n      sload\n      swap1\n      0x0100\n      exp\n      swap1\n      div\n      0xffffffffffffffffffffffffffffffffffffffff\n      and\n        /* \"contracts/FundMe.sol\":825:862  address funder = funders[funderIndex] */\n      swap1\n      pop\n        /* \"contracts/FundMe.sol\":908:909  0 */\n      0x00\n        /* \"contracts/FundMe.sol\":876:897  addressToAmountFunded */\n      0x01\n        /* \"contracts/FundMe.sol\":876:905  addressToAmountFunded[funder] */\n      0x00\n        /* \"contracts/FundMe.sol\":898:904  funder */\n      dup4\n        /* \"contracts/FundMe.sol\":876:905  addressToAmountFunded[funder] */\n      0xffffffffffffffffffffffffffffffffffffffff\n      and\n      0xffffffffffffffffffffffffffffffffffffffff\n      and\n      dup2\n      mstore\n      0x20\n      add\n      swap1\n      dup2\n      mstore\n      0x20\n      add\n      0x00\n      keccak256\n        /* \"contracts/FundMe.sol\":876:909  addressToAmountFunded[funder] = 0 */\n      dup2\n      swap1\n      sstore\n      pop\n        /* \"contracts/FundMe.sol\":811:920  {... */\n      pop\n        /* \"contracts/FundMe.sol\":788:801  funderIndex++ */\n      dup1\n      dup1\n      0x01\n      add\n      swap2\n      pop\n      pop\n        /* \"contracts/FundMe.sol\":728:920  for(uint256 funderIndex = 0 ; funderIndex < funders.length; funderIndex++)... */\n      jump(tag_52)\n    tag_53:\n      pop\n        /* \"contracts/FundMe.sol\":953:954  0 */\n      0x00\n        /* \"contracts/FundMe.sol\":939:955  new address[](0) */\n      0xffffffffffffffff\n      dup2\n      gt\n      iszero\n      tag_59\n      jumpi\n      tag_60\n      tag_61\n      jump\t// in\n    tag_60:\n    tag_59:\n      mload(0x40)\n      swap1\n      dup1\n      dup3\n      mstore\n      dup1\n      0x20\n      mul\n      0x20\n      add\n      dup3\n      add\n      0x40\n      mstore\n      dup1\n      iszero\n      tag_62\n      jumpi\n      dup2\n      0x20\n      add\n      0x20\n      dup3\n      mul\n      dup1\n      calldatasize\n      dup4\n      calldatacopy\n      dup1\n      dup3\n      add\n      swap2\n      pop\n      pop\n      swap1\n      pop\n    tag_62:\n      pop\n        /* \"contracts/FundMe.sol\":929:936  funders */\n      0x00\n        /* \"contracts/FundMe.sol\":929:955  funders = new address[](0) */\n      swap1\n      dup1\n      mload\n      swap1\n      0x20\n      add\n      swap1\n      tag_63\n      swap3\n      swap2\n      swap1\n      tag_64\n      jump\t// in\n    tag_63:\n      pop\n        /* \"contracts/FundMe.sol\":993:1003  msg.sender */\n      caller\n        /* \"contracts/FundMe.sol\":985:1013  payable(msg.sender).transfer */\n      0xffffffffffffffffffffffffffffffffffffffff\n      and\n        /* \"contracts/FundMe.sol\":985:1036  payable(msg.sender).transfer(address(this).balance) */\n      0x08fc\n        /* \"contracts/FundMe.sol\":1014:1035  address(this).balance */\n      selfbalance\n        /* \"contracts/FundMe.sol\":985:1036  payable(msg.sender).transfer(address(this).balance) */\n      swap1\n      dup2\n      iszero\n      mul\n      swap1\n      mload(0x40)\n      0x00\n      mload(0x40)\n      dup1\n      dup4\n      sub\n      dup2\n      dup6\n      dup9\n      dup9\n      call\n      swap4\n      pop\n      pop\n      pop\n      pop\n      iszero\n      dup1\n      iszero\n      tag_66\n      jumpi\n      returndatasize\n      0x00\n      dup1\n      returndatacopy\n      revert(0x00, returndatasize)\n    tag_66:\n      pop\n        /* \"contracts/FundMe.sol\":1063:1078  bool sendSucess */\n      0x00\n        /* \"contracts/FundMe.sol\":1089:1099  msg.sender */\n      caller\n        /* \"contracts/FundMe.sol\":1081:1105  payable(msg.sender).send */\n      0xffffffffffffffffffffffffffffffffffffffff\n      and\n        /* \"contracts/FundMe.sol\":1081:1128  payable(msg.sender).send(address(this).balance) */\n      0x08fc\n        /* \"contracts/FundMe.sol\":1106:1127  address(this).balance */\n      selfbalance\n        /* \"contracts/FundMe.sol\":1081:1128  payable(msg.sender).send(address(this).balance) */\n      swap1\n      dup2\n      iszero\n      mul\n      swap1\n      mload(0x40)\n      0x00\n      mload(0x40)\n      dup1\n      dup4\n      sub\n      dup2\n      dup6\n      dup9\n      dup9\n      call\n      swap4\n      pop\n      pop\n      pop\n      pop\n        /* \"contracts/FundMe.sol\":1063:1128  bool sendSucess = payable(msg.sender).send(address(this).balance) */\n      swap1\n      pop\n        /* \"contracts/FundMe.sol\":1146:1156  sendSucess */\n      dup1\n        /* \"contracts/FundMe.sol\":1138:1172  require(sendSucess, \"Send failed\") */\n      tag_68\n      jumpi\n      mload(0x40)\n      0x08c379a000000000000000000000000000000000000000000000000000000000\n      dup2\n      mstore\n      0x04\n      add\n      tag_69\n      swap1\n      tag_70\n      jump\t// in\n    tag_69:\n      mload(0x40)\n      dup1\n      swap2\n      sub\n      swap1\n      revert\n    tag_68:\n        /* \"contracts/FundMe.sol\":1200:1215  bool callSucess */\n      0x00\n        /* \"contracts/FundMe.sol\":1228:1238  msg.sender */\n      caller\n        /* \"contracts/FundMe.sol\":1220:1244  payable(msg.sender).call */\n      0xffffffffffffffffffffffffffffffffffffffff\n      and\n        /* \"contracts/FundMe.sol\":1252:1273  address(this).balance */\n      selfbalance\n        /* \"contracts/FundMe.sol\":1220:1278  payable(msg.sender).call{value: address(this).balance}(\"\") */\n      mload(0x40)\n      tag_71\n      swap1\n      tag_72\n      jump\t// in\n    tag_71:\n      0x00\n      mload(0x40)\n      dup1\n      dup4\n      sub\n      dup2\n      dup6\n      dup8\n      gas\n      call\n      swap3\n      pop\n      pop\n      pop\n      returndatasize\n      dup1\n      0x00\n      dup2\n      eq\n      tag_75\n      jumpi\n      mload(0x40)\n      swap2\n      pop\n      and(add(returndatasize, 0x3f), not(0x1f))\n      dup3\n      add\n      0x40\n      mstore\n      returndatasize\n      dup3\n      mstore\n      returndatasize\n      0x00\n      0x20\n      dup5\n      add\n      returndatacopy\n      jump(tag_74)\n    tag_75:\n      0x60\n      swap2\n      pop\n    tag_74:\n      pop\n        /* \"contracts/FundMe.sol\":1199:1278  (bool callSucess,) = payable(msg.sender).call{value: address(this).balance}(\"\") */\n      pop\n      swap1\n      pop\n        /* \"contracts/FundMe.sol\":1296:1306  callSucess */\n      dup1\n        /* \"contracts/FundMe.sol\":1288:1321  require(callSucess,\"Call failed\") */\n      tag_76\n      jumpi\n      mload(0x40)\n      0x08c379a000000000000000000000000000000000000000000000000000000000\n      dup2\n      mstore\n      0x04\n      add\n      tag_77\n      swap1\n      tag_78\n      jump\t// in\n    tag_77:\n      mload(0x40)\n      dup1\n      swap2\n      sub\n      swap1\n      revert\n    tag_76:\n        /* \"contracts/FundMe.sol\":717:1328  {... */\n      pop\n      pop\n        /* \"contracts/FundMe.sol\":690:1328  function withdraw() public {... */\n      jump\t// out\n        /* \"contracts/FundMe.sol\":275:351  mapping (address funder =>uint256 amountFunded) public addressToAmountFunded */\n    tag_23:\n      mstore(0x20, 0x01)\n      dup1\n      0x00\n      mstore\n      keccak256(0x00, 0x40)\n      0x00\n      swap2\n      pop\n      swap1\n      pop\n      sload\n      dup2\n      jump\t// out\n        /* \"contracts/FundMe.sol\":192:239  uint256 public constant MINIMUM_USD = 50 * 1e18 */\n    tag_28:\n        /* \"contracts/FundMe.sol\":230:239  50 * 1e18 */\n      0x02b5e3af16b1880000\n        /* \"contracts/FundMe.sol\":192:239  uint256 public constant MINIMUM_USD = 50 * 1e18 */\n      dup2\n      jump\t// out\n        /* \"contracts/FundMe.sol\":245:269  address[] public funders */\n    tag_35:\n      0x00\n      dup2\n      dup2\n      sload\n      dup2\n      lt\n      tag_79\n      jumpi\n      0x00\n      dup1\n      revert\n    tag_79:\n      swap1\n      0x00\n      mstore\n      keccak256(0x00, 0x20)\n      add\n      0x00\n      swap2\n      pop\n      sload\n      swap1\n      0x0100\n      exp\n      swap1\n      div\n      0xffffffffffffffffffffffffffffffffffffffff\n      and\n      dup2\n      jump\t// out\n        /* \"contracts/FundMe.sol\":358:391  address public  immutable i_Owner */\n    tag_40:\n      immutable(\"0xcc143a676b82d5e07b2c9d57717b403ab3c58caa273a42cdb95b15980141a86c\")\n      dup2\n      jump\t// out\n        /* \"contracts/PriceConverter.sol\":534:752  function getConversionRate(uint256 ethAmount)internal  view  returns (uint256){... */\n    tag_44:\n        /* \"contracts/PriceConverter.sol\":604:611  uint256 */\n      0x00\n        /* \"contracts/PriceConverter.sol\":622:635  uint ethPrice */\n      dup1\n        /* \"contracts/PriceConverter.sol\":638:648  getPrice() */\n      tag_82\n        /* \"contracts/PriceConverter.sol\":638:646  getPrice */\n      tag_83\n        /* \"contracts/PriceConverter.sol\":638:648  getPrice() */\n      jump\t// in\n    tag_82:\n        /* \"contracts/PriceConverter.sol\":622:648  uint ethPrice = getPrice() */\n      swap1\n      pop\n        /* \"contracts/PriceConverter.sol\":658:680  uint256 ethAmountInUsd */\n      0x00\n        /* \"contracts/PriceConverter.sol\":708:712  1e18 */\n      0x0de0b6b3a7640000\n        /* \"contracts/PriceConverter.sol\":695:704  ethAmount */\n      dup5\n        /* \"contracts/PriceConverter.sol\":684:692  ethPrice */\n      dup4\n        /* \"contracts/PriceConverter.sol\":684:704  ethPrice * ethAmount */\n      tag_84\n      swap2\n      swap1\n      tag_85\n      jump\t// in\n    tag_84:\n        /* \"contracts/PriceConverter.sol\":683:712  (ethPrice * ethAmount) / 1e18 */\n      tag_86\n      swap2\n      swap1\n      tag_87\n      jump\t// in\n    tag_86:\n        /* \"contracts/PriceConverter.sol\":658:712  uint256 ethAmountInUsd = (ethPrice * ethAmount) / 1e18 */\n      swap1\n      pop\n        /* \"contracts/PriceConverter.sol\":730:744  ethAmountInUsd */\n      dup1\n        /* \"contracts/PriceConverter.sol\":722:744  return  ethAmountInUsd */\n      swap3\n      pop\n      pop\n      pop\n        /* \"contracts/PriceConverter.sol\":534:752  function getConversionRate(uint256 ethAmount)internal  view  returns (uint256){... */\n      swap2\n      swap1\n      pop\n      jump\t// out\n        /* \"contracts/PriceConverter.sol\":202:527  function getPrice()internal view returns (uint256) {... */\n    tag_83:\n        /* \"contracts/PriceConverter.sol\":244:251  uint256 */\n      0x00\n        /* \"contracts/PriceConverter.sol\":325:356  AggregatorV3Interface priceFeed */\n      dup1\n        /* \"contracts/PriceConverter.sol\":381:423  0x694AA1769357215DE4FAC081bf1f309aDC325306 */\n      0x694aa1769357215de4fac081bf1f309adc325306\n        /* \"contracts/PriceConverter.sol\":325:424  AggregatorV3Interface priceFeed = AggregatorV3Interface(0x694AA1769357215DE4FAC081bf1f309aDC325306) */\n      swap1\n      pop\n        /* \"contracts/PriceConverter.sol\":436:448  int256 price */\n      0x00\n        /* \"contracts/PriceConverter.sol\":455:464  priceFeed */\n      dup2\n        /* \"contracts/PriceConverter.sol\":455:480  priceFeed.latestRoundData */\n      0xffffffffffffffffffffffffffffffffffffffff\n      and\n      0xfeaf968c\n        /* \"contracts/PriceConverter.sol\":455:482  priceFeed.latestRoundData() */\n      mload(0x40)\n      dup2\n      0xffffffff\n      and\n      0xe0\n      shl\n      dup2\n      mstore\n      0x04\n      add\n      0xa0\n      mload(0x40)\n      dup1\n      dup4\n      sub\n      dup2\n      dup7\n      gas\n      staticcall\n      iszero\n      dup1\n      iszero\n      tag_90\n      jumpi\n      returndatasize\n      0x00\n      dup1\n      returndatacopy\n      revert(0x00, returndatasize)\n    tag_90:\n      pop\n      pop\n      pop\n      pop\n      mload(0x40)\n      returndatasize\n      not(0x1f)\n      0x1f\n      dup3\n      add\n      and\n      dup3\n      add\n      dup1\n      0x40\n      mstore\n      pop\n      dup2\n      add\n      swap1\n      tag_91\n      swap2\n      swap1\n      tag_92\n      jump\t// in\n    tag_91:\n        /* \"contracts/PriceConverter.sol\":434:482  (,int256 price,,,) = priceFeed.latestRoundData() */\n      pop\n      pop\n      pop\n      swap2\n      pop\n      pop\n        /* \"contracts/PriceConverter.sol\":516:520  1e10 */\n      0x02540be400\n        /* \"contracts/PriceConverter.sol\":507:512  price */\n      dup2\n        /* \"contracts/PriceConverter.sol\":499:520  uint256(price) * 1e10 */\n      tag_93\n      swap2\n      swap1\n      tag_85\n      jump\t// in\n    tag_93:\n        /* \"contracts/PriceConverter.sol\":492:520  return uint256(price) * 1e10 */\n      swap3\n      pop\n      pop\n      pop\n        /* \"contracts/PriceConverter.sol\":202:527  function getPrice()internal view returns (uint256) {... */\n      swap1\n      jump\t// out\n    tag_64:\n      dup3\n      dup1\n      sload\n      dup3\n      dup3\n      sstore\n      swap1\n      0x00\n      mstore\n      keccak256(0x00, 0x20)\n      swap1\n      dup2\n      add\n      swap3\n      dup3\n      iszero\n      tag_94\n      jumpi\n      swap2\n      0x20\n      mul\n      dup3\n      add\n    tag_95:\n      dup3\n      dup2\n      gt\n      iszero\n      tag_96\n      jumpi\n      dup3\n      mload\n      dup3\n      exp(0x0100, 0x00)\n      dup2\n      sload\n      dup2\n      0xffffffffffffffffffffffffffffffffffffffff\n      mul\n      not\n      and\n      swap1\n      dup4\n      0xffffffffffffffffffffffffffffffffffffffff\n      and\n      mul\n      or\n      swap1\n      sstore\n      pop\n      swap2\n      0x20\n      add\n      swap2\n      swap1\n      0x01\n      add\n      swap1\n      jump(tag_95)\n    tag_96:\n    tag_94:\n      pop\n      swap1\n      pop\n      tag_97\n      swap2\n      swap1\n      tag_98\n      jump\t// in\n    tag_97:\n      pop\n      swap1\n      jump\t// out\n    tag_98:\n    tag_99:\n      dup1\n      dup3\n      gt\n      iszero\n      tag_100\n      jumpi\n      0x00\n      dup2\n      0x00\n      swap1\n      sstore\n      pop\n      0x01\n      add\n      jump(tag_99)\n    tag_100:\n      pop\n      swap1\n      jump\t// out\n        /* \"#utility.yul\":88:205   */\n    tag_102:\n        /* \"#utility.yul\":197:198   */\n      0x00\n        /* \"#utility.yul\":194:195   */\n      dup1\n        /* \"#utility.yul\":187:199   */\n      revert\n        /* \"#utility.yul\":334:460   */\n    tag_104:\n        /* \"#utility.yul\":371:378   */\n      0x00\n        /* \"#utility.yul\":411:453   */\n      0xffffffffffffffffffffffffffffffffffffffff\n        /* \"#utility.yul\":404:409   */\n      dup3\n        /* \"#utility.yul\":400:454   */\n      and\n        /* \"#utility.yul\":389:454   */\n      swap1\n      pop\n        /* \"#utility.yul\":334:460   */\n      swap2\n      swap1\n      pop\n      jump\t// out\n        /* \"#utility.yul\":466:562   */\n    tag_105:\n        /* \"#utility.yul\":503:510   */\n      0x00\n        /* \"#utility.yul\":532:556   */\n      tag_138\n        /* \"#utility.yul\":550:555   */\n      dup3\n        /* \"#utility.yul\":532:556   */\n      tag_104\n      jump\t// in\n    tag_138:\n        /* \"#utility.yul\":521:556   */\n      swap1\n      pop\n        /* \"#utility.yul\":466:562   */\n      swap2\n      swap1\n      pop\n      jump\t// out\n        /* \"#utility.yul\":568:690   */\n    tag_106:\n        /* \"#utility.yul\":641:665   */\n      tag_140\n        /* \"#utility.yul\":659:664   */\n      dup2\n        /* \"#utility.yul\":641:665   */\n      tag_105\n      jump\t// in\n    tag_140:\n        /* \"#utility.yul\":634:639   */\n      dup2\n        /* \"#utility.yul\":631:666   */\n      eq\n        /* \"#utility.yul\":621:684   */\n      tag_141\n      jumpi\n        /* \"#utility.yul\":680:681   */\n      0x00\n        /* \"#utility.yul\":677:678   */\n      dup1\n        /* \"#utility.yul\":670:682   */\n      revert\n        /* \"#utility.yul\":621:684   */\n    tag_141:\n        /* \"#utility.yul\":568:690   */\n      pop\n      jump\t// out\n        /* \"#utility.yul\":696:835   */\n    tag_107:\n        /* \"#utility.yul\":742:747   */\n      0x00\n        /* \"#utility.yul\":780:786   */\n      dup2\n        /* \"#utility.yul\":767:787   */\n      calldataload\n        /* \"#utility.yul\":758:787   */\n      swap1\n      pop\n        /* \"#utility.yul\":796:829   */\n      tag_143\n        /* \"#utility.yul\":823:828   */\n      dup2\n        /* \"#utility.yul\":796:829   */\n      tag_106\n      jump\t// in\n    tag_143:\n        /* \"#utility.yul\":696:835   */\n      swap3\n      swap2\n      pop\n      pop\n      jump\t// out\n        /* \"#utility.yul\":841:1170   */\n    tag_22:\n        /* \"#utility.yul\":900:906   */\n      0x00\n        /* \"#utility.yul\":949:951   */\n      0x20\n        /* \"#utility.yul\":937:946   */\n      dup3\n        /* \"#utility.yul\":928:935   */\n      dup5\n        /* \"#utility.yul\":924:947   */\n      sub\n        /* \"#utility.yul\":920:952   */\n      slt\n        /* \"#utility.yul\":917:1036   */\n      iszero\n      tag_145\n      jumpi\n        /* \"#utility.yul\":955:1034   */\n      tag_146\n      tag_102\n      jump\t// in\n    tag_146:\n        /* \"#utility.yul\":917:1036   */\n    tag_145:\n        /* \"#utility.yul\":1075:1076   */\n      0x00\n        /* \"#utility.yul\":1100:1153   */\n      tag_147\n        /* \"#utility.yul\":1145:1152   */\n      dup5\n        /* \"#utility.yul\":1136:1142   */\n      dup3\n        /* \"#utility.yul\":1125:1134   */\n      dup6\n        /* \"#utility.yul\":1121:1143   */\n      add\n        /* \"#utility.yul\":1100:1153   */\n      tag_107\n      jump\t// in\n    tag_147:\n        /* \"#utility.yul\":1090:1153   */\n      swap2\n      pop\n        /* \"#utility.yul\":1046:1163   */\n      pop\n        /* \"#utility.yul\":841:1170   */\n      swap3\n      swap2\n      pop\n      pop\n      jump\t// out\n        /* \"#utility.yul\":1176:1253   */\n    tag_108:\n        /* \"#utility.yul\":1213:1220   */\n      0x00\n        /* \"#utility.yul\":1242:1247   */\n      dup2\n        /* \"#utility.yul\":1231:1247   */\n      swap1\n      pop\n        /* \"#utility.yul\":1176:1253   */\n      swap2\n      swap1\n      pop\n      jump\t// out\n        /* \"#utility.yul\":1259:1377   */\n    tag_109:\n        /* \"#utility.yul\":1346:1370   */\n      tag_150\n        /* \"#utility.yul\":1364:1369   */\n      dup2\n        /* \"#utility.yul\":1346:1370   */\n      tag_108\n      jump\t// in\n    tag_150:\n        /* \"#utility.yul\":1341:1344   */\n      dup3\n        /* \"#utility.yul\":1334:1371   */\n      mstore\n        /* \"#utility.yul\":1259:1377   */\n      pop\n      pop\n      jump\t// out\n        /* \"#utility.yul\":1383:1605   */\n    tag_25:\n        /* \"#utility.yul\":1476:1480   */\n      0x00\n        /* \"#utility.yul\":1514:1516   */\n      0x20\n        /* \"#utility.yul\":1503:1512   */\n      dup3\n        /* \"#utility.yul\":1499:1517   */\n      add\n        /* \"#utility.yul\":1491:1517   */\n      swap1\n      pop\n        /* \"#utility.yul\":1527:1598   */\n      tag_152\n        /* \"#utility.yul\":1595:1596   */\n      0x00\n        /* \"#utility.yul\":1584:1593   */\n      dup4\n        /* \"#utility.yul\":1580:1597   */\n      add\n        /* \"#utility.yul\":1571:1577   */\n      dup5\n        /* \"#utility.yul\":1527:1598   */\n      tag_109\n      jump\t// in\n    tag_152:\n        /* \"#utility.yul\":1383:1605   */\n      swap3\n      swap2\n      pop\n      pop\n      jump\t// out\n        /* \"#utility.yul\":1611:1733   */\n    tag_110:\n        /* \"#utility.yul\":1684:1708   */\n      tag_154\n        /* \"#utility.yul\":1702:1707   */\n      dup2\n        /* \"#utility.yul\":1684:1708   */\n      tag_108\n      jump\t// in\n    tag_154:\n        /* \"#utility.yul\":1677:1682   */\n      dup2\n        /* \"#utility.yul\":1674:1709   */\n      eq\n        /* \"#utility.yul\":1664:1727   */\n      tag_155\n      jumpi\n        /* \"#utility.yul\":1723:1724   */\n      0x00\n        /* \"#utility.yul\":1720:1721   */\n      dup1\n        /* \"#utility.yul\":1713:1725   */\n      revert\n        /* \"#utility.yul\":1664:1727   */\n    tag_155:\n        /* \"#utility.yul\":1611:1733   */\n      pop\n      jump\t// out\n        /* \"#utility.yul\":1739:1878   */\n    tag_111:\n        /* \"#utility.yul\":1785:1790   */\n      0x00\n        /* \"#utility.yul\":1823:1829   */\n      dup2\n        /* \"#utility.yul\":1810:1830   */\n      calldataload\n        /* \"#utility.yul\":1801:1830   */\n      swap1\n      pop\n        /* \"#utility.yul\":1839:1872   */\n      tag_157\n        /* \"#utility.yul\":1866:1871   */\n      dup2\n        /* \"#utility.yul\":1839:1872   */\n      tag_110\n      jump\t// in\n    tag_157:\n        /* \"#utility.yul\":1739:1878   */\n      swap3\n      swap2\n      pop\n      pop\n      jump\t// out\n        /* \"#utility.yul\":1884:2213   */\n    tag_34:\n        /* \"#utility.yul\":1943:1949   */\n      0x00\n        /* \"#utility.yul\":1992:1994   */\n      0x20\n        /* \"#utility.yul\":1980:1989   */\n      dup3\n        /* \"#utility.yul\":1971:1978   */\n      dup5\n        /* \"#utility.yul\":1967:1990   */\n      sub\n        /* \"#utility.yul\":1963:1995   */\n      slt\n        /* \"#utility.yul\":1960:2079   */\n      iszero\n      tag_159\n      jumpi\n        /* \"#utility.yul\":1998:2077   */\n      tag_160\n      tag_102\n      jump\t// in\n    tag_160:\n        /* \"#utility.yul\":1960:2079   */\n    tag_159:\n        /* \"#utility.yul\":2118:2119   */\n      0x00\n        /* \"#utility.yul\":2143:2196   */\n      tag_161\n        /* \"#utility.yul\":2188:2195   */\n      dup5\n        /* \"#utility.yul\":2179:2185   */\n      dup3\n        /* \"#utility.yul\":2168:2177   */\n      dup6\n        /* \"#utility.yul\":2164:2186   */\n      add\n        /* \"#utility.yul\":2143:2196   */\n      tag_111\n      jump\t// in\n    tag_161:\n        /* \"#utility.yul\":2133:2196   */\n      swap2\n      pop\n        /* \"#utility.yul\":2089:2206   */\n      pop\n        /* \"#utility.yul\":1884:2213   */\n      swap3\n      swap2\n      pop\n      pop\n      jump\t// out\n        /* \"#utility.yul\":2219:2337   */\n    tag_112:\n        /* \"#utility.yul\":2306:2330   */\n      tag_163\n        /* \"#utility.yul\":2324:2329   */\n      dup2\n        /* \"#utility.yul\":2306:2330   */\n      tag_105\n      jump\t// in\n    tag_163:\n        /* \"#utility.yul\":2301:2304   */\n      dup3\n        /* \"#utility.yul\":2294:2331   */\n      mstore\n        /* \"#utility.yul\":2219:2337   */\n      pop\n      pop\n      jump\t// out\n        /* \"#utility.yul\":2343:2565   */\n    tag_37:\n        /* \"#utility.yul\":2436:2440   */\n      0x00\n        /* \"#utility.yul\":2474:2476   */\n      0x20\n        /* \"#utility.yul\":2463:2472   */\n      dup3\n        /* \"#utility.yul\":2459:2477   */\n      add\n        /* \"#utility.yul\":2451:2477   */\n      swap1\n      pop\n        /* \"#utility.yul\":2487:2558   */\n      tag_165\n        /* \"#utility.yul\":2555:2556   */\n      0x00\n        /* \"#utility.yul\":2544:2553   */\n      dup4\n        /* \"#utility.yul\":2540:2557   */\n      add\n        /* \"#utility.yul\":2531:2537   */\n      dup5\n        /* \"#utility.yul\":2487:2558   */\n      tag_112\n      jump\t// in\n    tag_165:\n        /* \"#utility.yul\":2343:2565   */\n      swap3\n      swap2\n      pop\n      pop\n      jump\t// out\n        /* \"#utility.yul\":2571:2740   */\n    tag_113:\n        /* \"#utility.yul\":2655:2666   */\n      0x00\n        /* \"#utility.yul\":2689:2695   */\n      dup3\n        /* \"#utility.yul\":2684:2687   */\n      dup3\n        /* \"#utility.yul\":2677:2696   */\n      mstore\n        /* \"#utility.yul\":2729:2733   */\n      0x20\n        /* \"#utility.yul\":2724:2727   */\n      dup3\n        /* \"#utility.yul\":2720:2734   */\n      add\n        /* \"#utility.yul\":2705:2734   */\n      swap1\n      pop\n        /* \"#utility.yul\":2571:2740   */\n      swap3\n      swap2\n      pop\n      pop\n      jump\t// out\n        /* \"#utility.yul\":2746:2971   */\n    tag_114:\n        /* \"#utility.yul\":2886:2920   */\n      0x546865206d696e696d756d20616d6f756e74206f662076616c7565206973206e\n        /* \"#utility.yul\":2882:2883   */\n      0x00\n        /* \"#utility.yul\":2874:2880   */\n      dup3\n        /* \"#utility.yul\":2870:2884   */\n      add\n        /* \"#utility.yul\":2863:2921   */\n      mstore\n        /* \"#utility.yul\":2955:2963   */\n      0x6f74206d65740000000000000000000000000000000000000000000000000000\n        /* \"#utility.yul\":2950:2952   */\n      0x20\n        /* \"#utility.yul\":2942:2948   */\n      dup3\n        /* \"#utility.yul\":2938:2953   */\n      add\n        /* \"#utility.yul\":2931:2964   */\n      mstore\n        /* \"#utility.yul\":2746:2971   */\n      pop\n      jump\t// out\n        /* \"#utility.yul\":2977:3343   */\n    tag_115:\n        /* \"#utility.yul\":3119:3122   */\n      0x00\n        /* \"#utility.yul\":3140:3207   */\n      tag_169\n        /* \"#utility.yul\":3204:3206   */\n      0x26\n        /* \"#utility.yul\":3199:3202   */\n      dup4\n        /* \"#utility.yul\":3140:3207   */\n      tag_113\n      jump\t// in\n    tag_169:\n        /* \"#utility.yul\":3133:3207   */\n      swap2\n      pop\n        /* \"#utility.yul\":3216:3309   */\n      tag_170\n        /* \"#utility.yul\":3305:3308   */\n      dup3\n        /* \"#utility.yul\":3216:3309   */\n      tag_114\n      jump\t// in\n    tag_170:\n        /* \"#utility.yul\":3334:3336   */\n      0x40\n        /* \"#utility.yul\":3329:3332   */\n      dup3\n        /* \"#utility.yul\":3325:3337   */\n      add\n        /* \"#utility.yul\":3318:3337   */\n      swap1\n      pop\n        /* \"#utility.yul\":2977:3343   */\n      swap2\n      swap1\n      pop\n      jump\t// out\n        /* \"#utility.yul\":3349:3768   */\n    tag_47:\n        /* \"#utility.yul\":3515:3519   */\n      0x00\n        /* \"#utility.yul\":3553:3555   */\n      0x20\n        /* \"#utility.yul\":3542:3551   */\n      dup3\n        /* \"#utility.yul\":3538:3556   */\n      add\n        /* \"#utility.yul\":3530:3556   */\n      swap1\n      pop\n        /* \"#utility.yul\":3602:3611   */\n      dup2\n        /* \"#utility.yul\":3596:3600   */\n      dup2\n        /* \"#utility.yul\":3592:3612   */\n      sub\n        /* \"#utility.yul\":3588:3589   */\n      0x00\n        /* \"#utility.yul\":3577:3586   */\n      dup4\n        /* \"#utility.yul\":3573:3590   */\n      add\n        /* \"#utility.yul\":3566:3613   */\n      mstore\n        /* \"#utility.yul\":3630:3761   */\n      tag_172\n        /* \"#utility.yul\":3756:3760   */\n      dup2\n        /* \"#utility.yul\":3630:3761   */\n      tag_115\n      jump\t// in\n    tag_172:\n        /* \"#utility.yul\":3622:3761   */\n      swap1\n      pop\n        /* \"#utility.yul\":3349:3768   */\n      swap2\n      swap1\n      pop\n      jump\t// out\n        /* \"#utility.yul\":3774:3954   */\n    tag_116:\n        /* \"#utility.yul\":3822:3899   */\n      0x4e487b7100000000000000000000000000000000000000000000000000000000\n        /* \"#utility.yul\":3819:3820   */\n      0x00\n        /* \"#utility.yul\":3812:3900   */\n      mstore\n        /* \"#utility.yul\":3919:3923   */\n      0x11\n        /* \"#utility.yul\":3916:3917   */\n      0x04\n        /* \"#utility.yul\":3909:3924   */\n      mstore\n        /* \"#utility.yul\":3943:3947   */\n      0x24\n        /* \"#utility.yul\":3940:3941   */\n      0x00\n        /* \"#utility.yul\":3933:3948   */\n      revert\n        /* \"#utility.yul\":3960:4151   */\n    tag_50:\n        /* \"#utility.yul\":4000:4003   */\n      0x00\n        /* \"#utility.yul\":4019:4039   */\n      tag_175\n        /* \"#utility.yul\":4037:4038   */\n      dup3\n        /* \"#utility.yul\":4019:4039   */\n      tag_108\n      jump\t// in\n    tag_175:\n        /* \"#utility.yul\":4014:4039   */\n      swap2\n      pop\n        /* \"#utility.yul\":4053:4073   */\n      tag_176\n        /* \"#utility.yul\":4071:4072   */\n      dup4\n        /* \"#utility.yul\":4053:4073   */\n      tag_108\n      jump\t// in\n    tag_176:\n        /* \"#utility.yul\":4048:4073   */\n      swap3\n      pop\n        /* \"#utility.yul\":4096:4097   */\n      dup3\n        /* \"#utility.yul\":4093:4094   */\n      dup3\n        /* \"#utility.yul\":4089:4098   */\n      add\n        /* \"#utility.yul\":4082:4098   */\n      swap1\n      pop\n        /* \"#utility.yul\":4117:4120   */\n      dup1\n        /* \"#utility.yul\":4114:4115   */\n      dup3\n        /* \"#utility.yul\":4111:4121   */\n      gt\n        /* \"#utility.yul\":4108:4144   */\n      iszero\n      tag_177\n      jumpi\n        /* \"#utility.yul\":4124:4142   */\n      tag_178\n      tag_116\n      jump\t// in\n    tag_178:\n        /* \"#utility.yul\":4108:4144   */\n    tag_177:\n        /* \"#utility.yul\":3960:4151   */\n      swap3\n      swap2\n      pop\n      pop\n      jump\t// out\n        /* \"#utility.yul\":4157:4337   */\n    tag_57:\n        /* \"#utility.yul\":4205:4282   */\n      0x4e487b7100000000000000000000000000000000000000000000000000000000\n        /* \"#utility.yul\":4202:4203   */\n      0x00\n        /* \"#utility.yul\":4195:4283   */\n      mstore\n        /* \"#utility.yul\":4302:4306   */\n      0x32\n        /* \"#utility.yul\":4299:4300   */\n      0x04\n        /* \"#utility.yul\":4292:4307   */\n      mstore\n        /* \"#utility.yul\":4326:4330   */\n      0x24\n        /* \"#utility.yul\":4323:4324   */\n      0x00\n        /* \"#utility.yul\":4316:4331   */\n      revert\n        /* \"#utility.yul\":4343:4523   */\n    tag_61:\n        /* \"#utility.yul\":4391:4468   */\n      0x4e487b7100000000000000000000000000000000000000000000000000000000\n        /* \"#utility.yul\":4388:4389   */\n      0x00\n        /* \"#utility.yul\":4381:4469   */\n      mstore\n        /* \"#utility.yul\":4488:4492   */\n      0x41\n        /* \"#utility.yul\":4485:4486   */\n      0x04\n        /* \"#utility.yul\":4478:4493   */\n      mstore\n        /* \"#utility.yul\":4512:4516   */\n      0x24\n        /* \"#utility.yul\":4509:4510   */\n      0x00\n        /* \"#utility.yul\":4502:4517   */\n      revert\n        /* \"#utility.yul\":4529:4690   */\n    tag_117:\n        /* \"#utility.yul\":4669:4682   */\n      0x53656e64206661696c6564000000000000000000000000000000000000000000\n        /* \"#utility.yul\":4665:4666   */\n      0x00\n        /* \"#utility.yul\":4657:4663   */\n      dup3\n        /* \"#utility.yul\":4653:4667   */\n      add\n        /* \"#utility.yul\":4646:4683   */\n      mstore\n        /* \"#utility.yul\":4529:4690   */\n      pop\n      jump\t// out\n        /* \"#utility.yul\":4696:5062   */\n    tag_118:\n        /* \"#utility.yul\":4838:4841   */\n      0x00\n        /* \"#utility.yul\":4859:4926   */\n      tag_183\n        /* \"#utility.yul\":4923:4925   */\n      0x0b\n        /* \"#utility.yul\":4918:4921   */\n      dup4\n        /* \"#utility.yul\":4859:4926   */\n      tag_113\n      jump\t// in\n    tag_183:\n        /* \"#utility.yul\":4852:4926   */\n      swap2\n      pop\n        /* \"#utility.yul\":4935:5028   */\n      tag_184\n        /* \"#utility.yul\":5024:5027   */\n      dup3\n        /* \"#utility.yul\":4935:5028   */\n      tag_117\n      jump\t// in\n    tag_184:\n        /* \"#utility.yul\":5053:5055   */\n      0x20\n        /* \"#utility.yul\":5048:5051   */\n      dup3\n        /* \"#utility.yul\":5044:5056   */\n      add\n        /* \"#utility.yul\":5037:5056   */\n      swap1\n      pop\n        /* \"#utility.yul\":4696:5062   */\n      swap2\n      swap1\n      pop\n      jump\t// out\n        /* \"#utility.yul\":5068:5487   */\n    tag_70:\n        /* \"#utility.yul\":5234:5238   */\n      0x00\n        /* \"#utility.yul\":5272:5274   */\n      0x20\n        /* \"#utility.yul\":5261:5270   */\n      dup3\n        /* \"#utility.yul\":5257:5275   */\n      add\n        /* \"#utility.yul\":5249:5275   */\n      swap1\n      pop\n        /* \"#utility.yul\":5321:5330   */\n      dup2\n        /* \"#utility.yul\":5315:5319   */\n      dup2\n        /* \"#utility.yul\":5311:5331   */\n      sub\n        /* \"#utility.yul\":5307:5308   */\n      0x00\n        /* \"#utility.yul\":5296:5305   */\n      dup4\n        /* \"#utility.yul\":5292:5309   */\n      add\n        /* \"#utility.yul\":5285:5332   */\n      mstore\n        /* \"#utility.yul\":5349:5480   */\n      tag_186\n        /* \"#utility.yul\":5475:5479   */\n      dup2\n        /* \"#utility.yul\":5349:5480   */\n      tag_118\n      jump\t// in\n    tag_186:\n        /* \"#utility.yul\":5341:5480   */\n      swap1\n      pop\n        /* \"#utility.yul\":5068:5487   */\n      swap2\n      swap1\n      pop\n      jump\t// out\n        /* \"#utility.yul\":5493:5640   */\n    tag_119:\n        /* \"#utility.yul\":5594:5605   */\n      0x00\n        /* \"#utility.yul\":5631:5634   */\n      dup2\n        /* \"#utility.yul\":5616:5634   */\n      swap1\n      pop\n        /* \"#utility.yul\":5493:5640   */\n      swap3\n      swap2\n      pop\n      pop\n      jump\t// out\n        /* \"#utility.yul\":5646:5760   */\n    tag_120:\n      pop\n      jump\t// out\n        /* \"#utility.yul\":5766:6164   */\n    tag_121:\n        /* \"#utility.yul\":5925:5928   */\n      0x00\n        /* \"#utility.yul\":5946:6029   */\n      tag_190\n        /* \"#utility.yul\":6027:6028   */\n      0x00\n        /* \"#utility.yul\":6022:6025   */\n      dup4\n        /* \"#utility.yul\":5946:6029   */\n      tag_119\n      jump\t// in\n    tag_190:\n        /* \"#utility.yul\":5939:6029   */\n      swap2\n      pop\n        /* \"#utility.yul\":6038:6131   */\n      tag_191\n        /* \"#utility.yul\":6127:6130   */\n      dup3\n        /* \"#utility.yul\":6038:6131   */\n      tag_120\n      jump\t// in\n    tag_191:\n        /* \"#utility.yul\":6156:6157   */\n      0x00\n        /* \"#utility.yul\":6151:6154   */\n      dup3\n        /* \"#utility.yul\":6147:6158   */\n      add\n        /* \"#utility.yul\":6140:6158   */\n      swap1\n      pop\n        /* \"#utility.yul\":5766:6164   */\n      swap2\n      swap1\n      pop\n      jump\t// out\n        /* \"#utility.yul\":6170:6549   */\n    tag_72:\n        /* \"#utility.yul\":6354:6357   */\n      0x00\n        /* \"#utility.yul\":6376:6523   */\n      tag_193\n        /* \"#utility.yul\":6519:6522   */\n      dup3\n        /* \"#utility.yul\":6376:6523   */\n      tag_121\n      jump\t// in\n    tag_193:\n        /* \"#utility.yul\":6369:6523   */\n      swap2\n      pop\n        /* \"#utility.yul\":6540:6543   */\n      dup2\n        /* \"#utility.yul\":6533:6543   */\n      swap1\n      pop\n        /* \"#utility.yul\":6170:6549   */\n      swap2\n      swap1\n      pop\n      jump\t// out\n        /* \"#utility.yul\":6555:6716   */\n    tag_122:\n        /* \"#utility.yul\":6695:6708   */\n      0x43616c6c206661696c6564000000000000000000000000000000000000000000\n        /* \"#utility.yul\":6691:6692   */\n      0x00\n        /* \"#utility.yul\":6683:6689   */\n      dup3\n        /* \"#utility.yul\":6679:6693   */\n      add\n        /* \"#utility.yul\":6672:6709   */\n      mstore\n        /* \"#utility.yul\":6555:6716   */\n      pop\n      jump\t// out\n        /* \"#utility.yul\":6722:7088   */\n    tag_123:\n        /* \"#utility.yul\":6864:6867   */\n      0x00\n        /* \"#utility.yul\":6885:6952   */\n      tag_196\n        /* \"#utility.yul\":6949:6951   */\n      0x0b\n        /* \"#utility.yul\":6944:6947   */\n      dup4\n        /* \"#utility.yul\":6885:6952   */\n      tag_113\n      jump\t// in\n    tag_196:\n        /* \"#utility.yul\":6878:6952   */\n      swap2\n      pop\n        /* \"#utility.yul\":6961:7054   */\n      tag_197\n        /* \"#utility.yul\":7050:7053   */\n      dup3\n        /* \"#utility.yul\":6961:7054   */\n      tag_122\n      jump\t// in\n    tag_197:\n        /* \"#utility.yul\":7079:7081   */\n      0x20\n        /* \"#utility.yul\":7074:7077   */\n      dup3\n        /* \"#utility.yul\":7070:7082   */\n      add\n        /* \"#utility.yul\":7063:7082   */\n      swap1\n      pop\n        /* \"#utility.yul\":6722:7088   */\n      swap2\n      swap1\n      pop\n      jump\t// out\n        /* \"#utility.yul\":7094:7513   */\n    tag_78:\n        /* \"#utility.yul\":7260:7264   */\n      0x00\n        /* \"#utility.yul\":7298:7300   */\n      0x20\n        /* \"#utility.yul\":7287:7296   */\n      dup3\n        /* \"#utility.yul\":7283:7301   */\n      add\n        /* \"#utility.yul\":7275:7301   */\n      swap1\n      pop\n        /* \"#utility.yul\":7347:7356   */\n      dup2\n        /* \"#utility.yul\":7341:7345   */\n      dup2\n        /* \"#utility.yul\":7337:7357   */\n      sub\n        /* \"#utility.yul\":7333:7334   */\n      0x00\n        /* \"#utility.yul\":7322:7331   */\n      dup4\n        /* \"#utility.yul\":7318:7335   */\n      add\n        /* \"#utility.yul\":7311:7358   */\n      mstore\n        /* \"#utility.yul\":7375:7506   */\n      tag_199\n        /* \"#utility.yul\":7501:7505   */\n      dup2\n        /* \"#utility.yul\":7375:7506   */\n      tag_123\n      jump\t// in\n    tag_199:\n        /* \"#utility.yul\":7367:7506   */\n      swap1\n      pop\n        /* \"#utility.yul\":7094:7513   */\n      swap2\n      swap1\n      pop\n      jump\t// out\n        /* \"#utility.yul\":7519:7929   */\n    tag_85:\n        /* \"#utility.yul\":7559:7566   */\n      0x00\n        /* \"#utility.yul\":7582:7602   */\n      tag_201\n        /* \"#utility.yul\":7600:7601   */\n      dup3\n        /* \"#utility.yul\":7582:7602   */\n      tag_108\n      jump\t// in\n    tag_201:\n        /* \"#utility.yul\":7577:7602   */\n      swap2\n      pop\n        /* \"#utility.yul\":7616:7636   */\n      tag_202\n        /* \"#utility.yul\":7634:7635   */\n      dup4\n        /* \"#utility.yul\":7616:7636   */\n      tag_108\n      jump\t// in\n    tag_202:\n        /* \"#utility.yul\":7611:7636   */\n      swap3\n      pop\n        /* \"#utility.yul\":7671:7672   */\n      dup3\n        /* \"#utility.yul\":7668:7669   */\n      dup3\n        /* \"#utility.yul\":7664:7673   */\n      mul\n        /* \"#utility.yul\":7693:7723   */\n      tag_203\n        /* \"#utility.yul\":7711:7722   */\n      dup2\n        /* \"#utility.yul\":7693:7723   */\n      tag_108\n      jump\t// in\n    tag_203:\n        /* \"#utility.yul\":7682:7723   */\n      swap2\n      pop\n        /* \"#utility.yul\":7872:7873   */\n      dup3\n        /* \"#utility.yul\":7863:7870   */\n      dup3\n        /* \"#utility.yul\":7859:7874   */\n      div\n        /* \"#utility.yul\":7856:7857   */\n      dup5\n        /* \"#utility.yul\":7853:7875   */\n      eq\n        /* \"#utility.yul\":7833:7834   */\n      dup4\n        /* \"#utility.yul\":7826:7835   */\n      iszero\n        /* \"#utility.yul\":7806:7889   */\n      or\n        /* \"#utility.yul\":7783:7922   */\n      tag_204\n      jumpi\n        /* \"#utility.yul\":7902:7920   */\n      tag_205\n      tag_116\n      jump\t// in\n    tag_205:\n        /* \"#utility.yul\":7783:7922   */\n    tag_204:\n        /* \"#utility.yul\":7567:7929   */\n      pop\n        /* \"#utility.yul\":7519:7929   */\n      swap3\n      swap2\n      pop\n      pop\n      jump\t// out\n        /* \"#utility.yul\":7935:8115   */\n    tag_124:\n        /* \"#utility.yul\":7983:8060   */\n      0x4e487b7100000000000000000000000000000000000000000000000000000000\n        /* \"#utility.yul\":7980:7981   */\n      0x00\n        /* \"#utility.yul\":7973:8061   */\n      mstore\n        /* \"#utility.yul\":8080:8084   */\n      0x12\n        /* \"#utility.yul\":8077:8078   */\n      0x04\n        /* \"#utility.yul\":8070:8085   */\n      mstore\n        /* \"#utility.yul\":8104:8108   */\n      0x24\n        /* \"#utility.yul\":8101:8102   */\n      0x00\n        /* \"#utility.yul\":8094:8109   */\n      revert\n        /* \"#utility.yul\":8121:8306   */\n    tag_87:\n        /* \"#utility.yul\":8161:8162   */\n      0x00\n        /* \"#utility.yul\":8178:8198   */\n      tag_208\n        /* \"#utility.yul\":8196:8197   */\n      dup3\n        /* \"#utility.yul\":8178:8198   */\n      tag_108\n      jump\t// in\n    tag_208:\n        /* \"#utility.yul\":8173:8198   */\n      swap2\n      pop\n        /* \"#utility.yul\":8212:8232   */\n      tag_209\n        /* \"#utility.yul\":8230:8231   */\n      dup4\n        /* \"#utility.yul\":8212:8232   */\n      tag_108\n      jump\t// in\n    tag_209:\n        /* \"#utility.yul\":8207:8232   */\n      swap3\n      pop\n        /* \"#utility.yul\":8251:8252   */\n      dup3\n        /* \"#utility.yul\":8241:8276   */\n      tag_210\n      jumpi\n        /* \"#utility.yul\":8256:8274   */\n      tag_211\n      tag_124\n      jump\t// in\n    tag_211:\n        /* \"#utility.yul\":8241:8276   */\n    tag_210:\n        /* \"#utility.yul\":8298:8299   */\n      dup3\n        /* \"#utility.yul\":8295:8296   */\n      dup3\n        /* \"#utility.yul\":8291:8300   */\n      div\n        /* \"#utility.yul\":8286:8300   */\n      swap1\n      pop\n        /* \"#utility.yul\":8121:8306   */\n      swap3\n      swap2\n      pop\n      pop\n      jump\t// out\n        /* \"#utility.yul\":8312:8417   */\n    tag_125:\n        /* \"#utility.yul\":8348:8355   */\n      0x00\n        /* \"#utility.yul\":8388:8410   */\n      0xffffffffffffffffffff\n        /* \"#utility.yul\":8381:8386   */\n      dup3\n        /* \"#utility.yul\":8377:8411   */\n      and\n        /* \"#utility.yul\":8366:8411   */\n      swap1\n      pop\n        /* \"#utility.yul\":8312:8417   */\n      swap2\n      swap1\n      pop\n      jump\t// out\n        /* \"#utility.yul\":8423:8543   */\n    tag_126:\n        /* \"#utility.yul\":8495:8518   */\n      tag_214\n        /* \"#utility.yul\":8512:8517   */\n      dup2\n        /* \"#utility.yul\":8495:8518   */\n      tag_125\n      jump\t// in\n    tag_214:\n        /* \"#utility.yul\":8488:8493   */\n      dup2\n        /* \"#utility.yul\":8485:8519   */\n      eq\n        /* \"#utility.yul\":8475:8537   */\n      tag_215\n      jumpi\n        /* \"#utility.yul\":8533:8534   */\n      0x00\n        /* \"#utility.yul\":8530:8531   */\n      dup1\n        /* \"#utility.yul\":8523:8535   */\n      revert\n        /* \"#utility.yul\":8475:8537   */\n    tag_215:\n        /* \"#utility.yul\":8423:8543   */\n      pop\n      jump\t// out\n        /* \"#utility.yul\":8549:8690   */\n    tag_127:\n        /* \"#utility.yul\":8605:8610   */\n      0x00\n        /* \"#utility.yul\":8636:8642   */\n      dup2\n        /* \"#utility.yul\":8630:8643   */\n      mload\n        /* \"#utility.yul\":8621:8643   */\n      swap1\n      pop\n        /* \"#utility.yul\":8652:8684   */\n      tag_217\n        /* \"#utility.yul\":8678:8683   */\n      dup2\n        /* \"#utility.yul\":8652:8684   */\n      tag_126\n      jump\t// in\n    tag_217:\n        /* \"#utility.yul\":8549:8690   */\n      swap3\n      swap2\n      pop\n      pop\n      jump\t// out\n        /* \"#utility.yul\":8696:8772   */\n    tag_128:\n        /* \"#utility.yul\":8732:8739   */\n      0x00\n        /* \"#utility.yul\":8761:8766   */\n      dup2\n        /* \"#utility.yul\":8750:8766   */\n      swap1\n      pop\n        /* \"#utility.yul\":8696:8772   */\n      swap2\n      swap1\n      pop\n      jump\t// out\n        /* \"#utility.yul\":8778:8898   */\n    tag_129:\n        /* \"#utility.yul\":8850:8873   */\n      tag_220\n        /* \"#utility.yul\":8867:8872   */\n      dup2\n        /* \"#utility.yul\":8850:8873   */\n      tag_128\n      jump\t// in\n    tag_220:\n        /* \"#utility.yul\":8843:8848   */\n      dup2\n        /* \"#utility.yul\":8840:8874   */\n      eq\n        /* \"#utility.yul\":8830:8892   */\n      tag_221\n      jumpi\n        /* \"#utility.yul\":8888:8889   */\n      0x00\n        /* \"#utility.yul\":8885:8886   */\n      dup1\n        /* \"#utility.yul\":8878:8890   */\n      revert\n        /* \"#utility.yul\":8830:8892   */\n    tag_221:\n        /* \"#utility.yul\":8778:8898   */\n      pop\n      jump\t// out\n        /* \"#utility.yul\":8904:9045   */\n    tag_130:\n        /* \"#utility.yul\":8960:8965   */\n      0x00\n        /* \"#utility.yul\":8991:8997   */\n      dup2\n        /* \"#utility.yul\":8985:8998   */\n      mload\n        /* \"#utility.yul\":8976:8998   */\n      swap1\n      pop\n        /* \"#utility.yul\":9007:9039   */\n      tag_223\n        /* \"#utility.yul\":9033:9038   */\n      dup2\n        /* \"#utility.yul\":9007:9039   */\n      tag_129\n      jump\t// in\n    tag_223:\n        /* \"#utility.yul\":8904:9045   */\n      swap3\n      swap2\n      pop\n      pop\n      jump\t// out\n        /* \"#utility.yul\":9051:9194   */\n    tag_131:\n        /* \"#utility.yul\":9108:9113   */\n      0x00\n        /* \"#utility.yul\":9139:9145   */\n      dup2\n        /* \"#utility.yul\":9133:9146   */\n      mload\n        /* \"#utility.yul\":9124:9146   */\n      swap1\n      pop\n        /* \"#utility.yul\":9155:9188   */\n      tag_225\n        /* \"#utility.yul\":9182:9187   */\n      dup2\n        /* \"#utility.yul\":9155:9188   */\n      tag_110\n      jump\t// in\n    tag_225:\n        /* \"#utility.yul\":9051:9194   */\n      swap3\n      swap2\n      pop\n      pop\n      jump\t// out\n        /* \"#utility.yul\":9200:10171   */\n    tag_92:\n        /* \"#utility.yul\":9303:9309   */\n      0x00\n        /* \"#utility.yul\":9311:9317   */\n      dup1\n        /* \"#utility.yul\":9319:9325   */\n      0x00\n        /* \"#utility.yul\":9327:9333   */\n      dup1\n        /* \"#utility.yul\":9335:9341   */\n      0x00\n        /* \"#utility.yul\":9384:9387   */\n      0xa0\n        /* \"#utility.yul\":9372:9381   */\n      dup7\n        /* \"#utility.yul\":9363:9370   */\n      dup9\n        /* \"#utility.yul\":9359:9382   */\n      sub\n        /* \"#utility.yul\":9355:9388   */\n      slt\n        /* \"#utility.yul\":9352:9472   */\n      iszero\n      tag_227\n      jumpi\n        /* \"#utility.yul\":9391:9470   */\n      tag_228\n      tag_102\n      jump\t// in\n    tag_228:\n        /* \"#utility.yul\":9352:9472   */\n    tag_227:\n        /* \"#utility.yul\":9511:9512   */\n      0x00\n        /* \"#utility.yul\":9536:9599   */\n      tag_229\n        /* \"#utility.yul\":9591:9598   */\n      dup9\n        /* \"#utility.yul\":9582:9588   */\n      dup3\n        /* \"#utility.yul\":9571:9580   */\n      dup10\n        /* \"#utility.yul\":9567:9589   */\n      add\n        /* \"#utility.yul\":9536:9599   */\n      tag_127\n      jump\t// in\n    tag_229:\n        /* \"#utility.yul\":9526:9599   */\n      swap6\n      pop\n        /* \"#utility.yul\":9482:9609   */\n      pop\n        /* \"#utility.yul\":9648:9650   */\n      0x20\n        /* \"#utility.yul\":9674:9737   */\n      tag_230\n        /* \"#utility.yul\":9729:9736   */\n      dup9\n        /* \"#utility.yul\":9720:9726   */\n      dup3\n        /* \"#utility.yul\":9709:9718   */\n      dup10\n        /* \"#utility.yul\":9705:9727   */\n      add\n        /* \"#utility.yul\":9674:9737   */\n      tag_130\n      jump\t// in\n    tag_230:\n        /* \"#utility.yul\":9664:9737   */\n      swap5\n      pop\n        /* \"#utility.yul\":9619:9747   */\n      pop\n        /* \"#utility.yul\":9786:9788   */\n      0x40\n        /* \"#utility.yul\":9812:9876   */\n      tag_231\n        /* \"#utility.yul\":9868:9875   */\n      dup9\n        /* \"#utility.yul\":9859:9865   */\n      dup3\n        /* \"#utility.yul\":9848:9857   */\n      dup10\n        /* \"#utility.yul\":9844:9866   */\n      add\n        /* \"#utility.yul\":9812:9876   */\n      tag_131\n      jump\t// in\n    tag_231:\n        /* \"#utility.yul\":9802:9876   */\n      swap4\n      pop\n        /* \"#utility.yul\":9757:9886   */\n      pop\n        /* \"#utility.yul\":9925:9927   */\n      0x60\n        /* \"#utility.yul\":9951:10015   */\n      tag_232\n        /* \"#utility.yul\":10007:10014   */\n      dup9\n        /* \"#utility.yul\":9998:10004   */\n      dup3\n        /* \"#utility.yul\":9987:9996   */\n      dup10\n        /* \"#utility.yul\":9983:10005   */\n      add\n        /* \"#utility.yul\":9951:10015   */\n      tag_131\n      jump\t// in\n    tag_232:\n        /* \"#utility.yul\":9941:10015   */\n      swap3\n      pop\n        /* \"#utility.yul\":9896:10025   */\n      pop\n        /* \"#utility.yul\":10064:10067   */\n      0x80\n        /* \"#utility.yul\":10091:10154   */\n      tag_233\n        /* \"#utility.yul\":10146:10153   */\n      dup9\n        /* \"#utility.yul\":10137:10143   */\n      dup3\n        /* \"#utility.yul\":10126:10135   */\n      dup10\n        /* \"#utility.yul\":10122:10144   */\n      add\n        /* \"#utility.yul\":10091:10154   */\n      tag_127\n      jump\t// in\n    tag_233:\n        /* \"#utility.yul\":10081:10154   */\n      swap2\n      pop\n        /* \"#utility.yul\":10035:10164   */\n      pop\n        /* \"#utility.yul\":9200:10171   */\n      swap3\n      swap6\n      pop\n      swap3\n      swap6\n      swap1\n      swap4\n      pop\n      jump\t// out\n\n    auxdata: 0xa26469706673582212204d73e26dc09aaa85bce16c2c003949aa186817c6568f56c630d0efba3562dad164736f6c63430008180033\n}\n",
				"bytecode": {
					"linkReferences": {},
					"object": "60a060405234801561000f575f80fd5b503373ffffffffffffffffffffffffffffffffffffffff1660808173ffffffffffffffffffffffffffffffffffffffff1681525050608051610c3661005c5f395f6105240152610c365ff3fe608060405260043610610058575f3560e01c80633ccfd60b146100715780633e47d6f3146100875780636b69a592146100c3578063b60d4288146100ed578063dc0d3dff146100f7578063e667b0bf1461013357610067565b366100675761006561015d565b005b61006f61015d565b005b34801561007c575f80fd5b50610085610264565b005b348015610092575f80fd5b506100ad60048036038101906100a89190610723565b6104c6565b6040516100ba9190610766565b60405180910390f35b3480156100ce575f80fd5b506100d76104db565b6040516100e49190610766565b60405180910390f35b6100f561015d565b005b348015610102575f80fd5b5061011d600480360381019061011891906107a9565b6104e8565b60405161012a91906107e3565b60405180910390f35b34801561013e575f80fd5b50610147610522565b60405161015491906107e3565b60405180910390f35b6802b5e3af16b188000061017034610546565b116101b0576040517f08c379a00000000000000000000000000000000000000000000000000000000081526004016101a79061087c565b60405180910390fd5b5f33908060018154018082558091505060019003905f5260205f20015f9091909190916101000a81548173ffffffffffffffffffffffffffffffffffffffff021916908373ffffffffffffffffffffffffffffffffffffffff1602179055503460015f3373ffffffffffffffffffffffffffffffffffffffff1673ffffffffffffffffffffffffffffffffffffffff1681526020019081526020015f205f82825461025b91906108c7565b92505081905550565b5f5b5f80549050811015610300575f808281548110610286576102856108fa565b5b905f5260205f20015f9054906101000a900473ffffffffffffffffffffffffffffffffffffffff1690505f60015f8373ffffffffffffffffffffffffffffffffffffffff1673ffffffffffffffffffffffffffffffffffffffff1681526020019081526020015f2081905550508080600101915050610266565b505f67ffffffffffffffff81111561031b5761031a610927565b5b6040519080825280602002602001820160405280156103495781602001602082028036833780820191505090505b505f908051906020019061035e929190610623565b503373ffffffffffffffffffffffffffffffffffffffff166108fc4790811502906040515f60405180830381858888f193505050501580156103a2573d5f803e3d5ffd5b505f3373ffffffffffffffffffffffffffffffffffffffff166108fc4790811502906040515f60405180830381858888f1935050505090508061041a576040517f08c379a00000000000000000000000000000000000000000000000000000000081526004016104119061099e565b60405180910390fd5b5f3373ffffffffffffffffffffffffffffffffffffffff164760405161043f906109e9565b5f6040518083038185875af1925050503d805f8114610479576040519150601f19603f3d011682016040523d82523d5f602084013e61047e565b606091505b50509050806104c2576040517f08c379a00000000000000000000000000000000000000000000000000000000081526004016104b990610a47565b60405180910390fd5b5050565b6001602052805f5260405f205f915090505481565b6802b5e3af16b188000081565b5f81815481106104f6575f80fd5b905f5260205f20015f915054906101000a900473ffffffffffffffffffffffffffffffffffffffff1681565b7f000000000000000000000000000000000000000000000000000000000000000081565b5f8061055061057e565b90505f670de0b6b3a764000084836105689190610a65565b6105729190610ad3565b90508092505050919050565b5f8073694aa1769357215de4fac081bf1f309adc32530690505f8173ffffffffffffffffffffffffffffffffffffffff1663feaf968c6040518163ffffffff1660e01b815260040160a060405180830381865afa1580156105e1573d5f803e3d5ffd5b505050506040513d601f19601f820116820180604052508101906106059190610b89565b5050509150506402540be4008161061c9190610a65565b9250505090565b828054828255905f5260205f20908101928215610699579160200282015b82811115610698578251825f6101000a81548173ffffffffffffffffffffffffffffffffffffffff021916908373ffffffffffffffffffffffffffffffffffffffff16021790555091602001919060010190610641565b5b5090506106a691906106aa565b5090565b5b808211156106c1575f815f9055506001016106ab565b5090565b5f80fd5b5f73ffffffffffffffffffffffffffffffffffffffff82169050919050565b5f6106f2826106c9565b9050919050565b610702816106e8565b811461070c575f80fd5b50565b5f8135905061071d816106f9565b92915050565b5f60208284031215610738576107376106c5565b5b5f6107458482850161070f565b91505092915050565b5f819050919050565b6107608161074e565b82525050565b5f6020820190506107795f830184610757565b92915050565b6107888161074e565b8114610792575f80fd5b50565b5f813590506107a38161077f565b92915050565b5f602082840312156107be576107bd6106c5565b5b5f6107cb84828501610795565b91505092915050565b6107dd816106e8565b82525050565b5f6020820190506107f65f8301846107d4565b92915050565b5f82825260208201905092915050565b7f546865206d696e696d756d20616d6f756e74206f662076616c7565206973206e5f8201527f6f74206d65740000000000000000000000000000000000000000000000000000602082015250565b5f6108666026836107fc565b91506108718261080c565b604082019050919050565b5f6020820190508181035f8301526108938161085a565b9050919050565b7f4e487b71000000000000000000000000000000000000000000000000000000005f52601160045260245ffd5b5f6108d18261074e565b91506108dc8361074e565b92508282019050808211156108f4576108f361089a565b5b92915050565b7f4e487b71000000000000000000000000000000000000000000000000000000005f52603260045260245ffd5b7f4e487b71000000000000000000000000000000000000000000000000000000005f52604160045260245ffd5b7f53656e64206661696c65640000000000000000000000000000000000000000005f82015250565b5f610988600b836107fc565b915061099382610954565b602082019050919050565b5f6020820190508181035f8301526109b58161097c565b9050919050565b5f81905092915050565b50565b5f6109d45f836109bc565b91506109df826109c6565b5f82019050919050565b5f6109f3826109c9565b9150819050919050565b7f43616c6c206661696c65640000000000000000000000000000000000000000005f82015250565b5f610a31600b836107fc565b9150610a3c826109fd565b602082019050919050565b5f6020820190508181035f830152610a5e81610a25565b9050919050565b5f610a6f8261074e565b9150610a7a8361074e565b9250828202610a888161074e565b91508282048414831517610a9f57610a9e61089a565b5b5092915050565b7f4e487b71000000000000000000000000000000000000000000000000000000005f52601260045260245ffd5b5f610add8261074e565b9150610ae88361074e565b925082610af857610af7610aa6565b5b828204905092915050565b5f69ffffffffffffffffffff82169050919050565b610b2181610b03565b8114610b2b575f80fd5b50565b5f81519050610b3c81610b18565b92915050565b5f819050919050565b610b5481610b42565b8114610b5e575f80fd5b50565b5f81519050610b6f81610b4b565b92915050565b5f81519050610b838161077f565b92915050565b5f805f805f60a08688031215610ba257610ba16106c5565b5b5f610baf88828901610b2e565b9550506020610bc088828901610b61565b9450506040610bd188828901610b75565b9350506060610be288828901610b75565b9250506080610bf388828901610b2e565b915050929550929590935056fea26469706673582212204d73e26dc09aaa85bce16c2c003949aa186817c6568f56c630d0efba3562dad164736f6c63430008180033",
					"opcodes": "PUSH1 0xA0 PUSH1 0x40 MSTORE CALLVALUE DUP1 ISZERO PUSH2 0xF JUMPI PUSH0 DUP1 REVERT JUMPDEST POP CALLER PUSH20 0xFFFFFFFFFFFFFFFFFFFFFFFFFFFFFFFFFFFFFFFF AND PUSH1 0x80 DUP2 PUSH20 0xFFFFFFFFFFFFFFFFFFFFFFFFFFFFFFFFFFFFFFFF AND DUP2 MSTORE POP POP PUSH1 0x80 MLOAD PUSH2 0xC36 PUSH2 0x5C PUSH0 CODECOPY PUSH0 PUSH2 0x524 ADD MSTORE PUSH2 0xC36 PUSH0 RETURN INVALID PUSH1 0x80 PUSH1 0x40 MSTORE PUSH1 0x4 CALLDATASIZE LT PUSH2 0x58 JUMPI PUSH0 CALLDATALOAD PUSH1 0xE0 SHR DUP1 PUSH4 0x3CCFD60B EQ PUSH2 0x71 JUMPI DUP1 PUSH4 0x3E47D6F3 EQ PUSH2 0x87 JUMPI DUP1 PUSH4 0x6B69A592 EQ PUSH2 0xC3 JUMPI DUP1 PUSH4 0xB60D4288 EQ PUSH2 0xED JUMPI DUP1 PUSH4 0xDC0D3DFF EQ PUSH2 0xF7 JUMPI DUP1 PUSH4 0xE667B0BF EQ PUSH2 0x133 JUMPI PUSH2 0x67 JUMP JUMPDEST CALLDATASIZE PUSH2 0x67 JUMPI PUSH2 0x65 PUSH2 0x15D JUMP JUMPDEST STOP JUMPDEST PUSH2 0x6F PUSH2 0x15D JUMP JUMPDEST STOP JUMPDEST CALLVALUE DUP1 ISZERO PUSH2 0x7C JUMPI PUSH0 DUP1 REVERT JUMPDEST POP PUSH2 0x85 PUSH2 0x264 JUMP JUMPDEST STOP JUMPDEST CALLVALUE DUP1 ISZERO PUSH2 0x92 JUMPI PUSH0 DUP1 REVERT JUMPDEST POP PUSH2 0xAD PUSH1 0x4 DUP1 CALLDATASIZE SUB DUP2 ADD SWAP1 PUSH2 0xA8 SWAP2 SWAP1 PUSH2 0x723 JUMP JUMPDEST PUSH2 0x4C6 JUMP JUMPDEST PUSH1 0x40 MLOAD PUSH2 0xBA SWAP2 SWAP1 PUSH2 0x766 JUMP JUMPDEST PUSH1 0x40 MLOAD DUP1 SWAP2 SUB SWAP1 RETURN JUMPDEST CALLVALUE DUP1 ISZERO PUSH2 0xCE JUMPI PUSH0 DUP1 REVERT JUMPDEST POP PUSH2 0xD7 PUSH2 0x4DB JUMP JUMPDEST PUSH1 0x40 MLOAD PUSH2 0xE4 SWAP2 SWAP1 PUSH2 0x766 JUMP JUMPDEST PUSH1 0x40 MLOAD DUP1 SWAP2 SUB SWAP1 RETURN JUMPDEST PUSH2 0xF5 PUSH2 0x15D JUMP JUMPDEST STOP JUMPDEST CALLVALUE DUP1 ISZERO PUSH2 0x102 JUMPI PUSH0 DUP1 REVERT JUMPDEST POP PUSH2 0x11D PUSH1 0x4 DUP1 CALLDATASIZE SUB DUP2 ADD SWAP1 PUSH2 0x118 SWAP2 SWAP1 PUSH2 0x7A9 JUMP JUMPDEST PUSH2 0x4E8 JUMP JUMPDEST PUSH1 0x40 MLOAD PUSH2 0x12A SWAP2 SWAP1 PUSH2 0x7E3 JUMP JUMPDEST PUSH1 0x40 MLOAD DUP1 SWAP2 SUB SWAP1 RETURN JUMPDEST CALLVALUE DUP1 ISZERO PUSH2 0x13E JUMPI PUSH0 DUP1 REVERT JUMPDEST POP PUSH2 0x147 PUSH2 0x522 JUMP JUMPDEST PUSH1 0x40 MLOAD PUSH2 0x154 SWAP2 SWAP1 PUSH2 0x7E3 JUMP JUMPDEST PUSH1 0x40 MLOAD DUP1 SWAP2 SUB SWAP1 RETURN JUMPDEST PUSH9 0x2B5E3AF16B1880000 PUSH2 0x170 CALLVALUE PUSH2 0x546 JUMP JUMPDEST GT PUSH2 0x1B0 JUMPI PUSH1 0x40 MLOAD PUSH32 0x8C379A000000000000000000000000000000000000000000000000000000000 DUP2 MSTORE PUSH1 0x4 ADD PUSH2 0x1A7 SWAP1 PUSH2 0x87C JUMP JUMPDEST PUSH1 0x40 MLOAD DUP1 SWAP2 SUB SWAP1 REVERT JUMPDEST PUSH0 CALLER SWAP1 DUP1 PUSH1 0x1 DUP2 SLOAD ADD DUP1 DUP3 SSTORE DUP1 SWAP2 POP POP PUSH1 0x1 SWAP1 SUB SWAP1 PUSH0 MSTORE PUSH1 0x20 PUSH0 KECCAK256 ADD PUSH0 SWAP1 SWAP2 SWAP1 SWAP2 SWAP1 SWAP2 PUSH2 0x100 EXP DUP2 SLOAD DUP2 PUSH20 0xFFFFFFFFFFFFFFFFFFFFFFFFFFFFFFFFFFFFFFFF MUL NOT AND SWAP1 DUP4 PUSH20 0xFFFFFFFFFFFFFFFFFFFFFFFFFFFFFFFFFFFFFFFF AND MUL OR SWAP1 SSTORE POP CALLVALUE PUSH1 0x1 PUSH0 CALLER PUSH20 0xFFFFFFFFFFFFFFFFFFFFFFFFFFFFFFFFFFFFFFFF AND PUSH20 0xFFFFFFFFFFFFFFFFFFFFFFFFFFFFFFFFFFFFFFFF AND DUP2 MSTORE PUSH1 0x20 ADD SWAP1 DUP2 MSTORE PUSH1 0x20 ADD PUSH0 KECCAK256 PUSH0 DUP3 DUP3 SLOAD PUSH2 0x25B SWAP2 SWAP1 PUSH2 0x8C7 JUMP JUMPDEST SWAP3 POP POP DUP2 SWAP1 SSTORE POP JUMP JUMPDEST PUSH0 JUMPDEST PUSH0 DUP1 SLOAD SWAP1 POP DUP2 LT ISZERO PUSH2 0x300 JUMPI PUSH0 DUP1 DUP3 DUP2 SLOAD DUP2 LT PUSH2 0x286 JUMPI PUSH2 0x285 PUSH2 0x8FA JUMP JUMPDEST JUMPDEST SWAP1 PUSH0 MSTORE PUSH1 0x20 PUSH0 KECCAK256 ADD PUSH0 SWAP1 SLOAD SWAP1 PUSH2 0x100 EXP SWAP1 DIV PUSH20 0xFFFFFFFFFFFFFFFFFFFFFFFFFFFFFFFFFFFFFFFF AND SWAP1 POP PUSH0 PUSH1 0x1 PUSH0 DUP4 PUSH20 0xFFFFFFFFFFFFFFFFFFFFFFFFFFFFFFFFFFFFFFFF AND PUSH20 0xFFFFFFFFFFFFFFFFFFFFFFFFFFFFFFFFFFFFFFFF AND DUP2 MSTORE PUSH1 0x20 ADD SWAP1 DUP2 MSTORE PUSH1 0x20 ADD PUSH0 KECCAK256 DUP2 SWAP1 SSTORE POP POP DUP1 DUP1 PUSH1 0x1 ADD SWAP2 POP POP PUSH2 0x266 JUMP JUMPDEST POP PUSH0 PUSH8 0xFFFFFFFFFFFFFFFF DUP2 GT ISZERO PUSH2 0x31B JUMPI PUSH2 0x31A PUSH2 0x927 JUMP JUMPDEST JUMPDEST PUSH1 0x40 MLOAD SWAP1 DUP1 DUP3 MSTORE DUP1 PUSH1 0x20 MUL PUSH1 0x20 ADD DUP3 ADD PUSH1 0x40 MSTORE DUP1 ISZERO PUSH2 0x349 JUMPI DUP2 PUSH1 0x20 ADD PUSH1 0x20 DUP3 MUL DUP1 CALLDATASIZE DUP4 CALLDATACOPY DUP1 DUP3 ADD SWAP2 POP POP SWAP1 POP JUMPDEST POP PUSH0 SWAP1 DUP1 MLOAD SWAP1 PUSH1 0x20 ADD SWAP1 PUSH2 0x35E SWAP3 SWAP2 SWAP1 PUSH2 0x623 JUMP JUMPDEST POP CALLER PUSH20 0xFFFFFFFFFFFFFFFFFFFFFFFFFFFFFFFFFFFFFFFF AND PUSH2 0x8FC SELFBALANCE SWAP1 DUP2 ISZERO MUL SWAP1 PUSH1 0x40 MLOAD PUSH0 PUSH1 0x40 MLOAD DUP1 DUP4 SUB DUP2 DUP6 DUP9 DUP9 CALL SWAP4 POP POP POP POP ISZERO DUP1 ISZERO PUSH2 0x3A2 JUMPI RETURNDATASIZE PUSH0 DUP1 RETURNDATACOPY RETURNDATASIZE PUSH0 REVERT JUMPDEST POP PUSH0 CALLER PUSH20 0xFFFFFFFFFFFFFFFFFFFFFFFFFFFFFFFFFFFFFFFF AND PUSH2 0x8FC SELFBALANCE SWAP1 DUP2 ISZERO MUL SWAP1 PUSH1 0x40 MLOAD PUSH0 PUSH1 0x40 MLOAD DUP1 DUP4 SUB DUP2 DUP6 DUP9 DUP9 CALL SWAP4 POP POP POP POP SWAP1 POP DUP1 PUSH2 0x41A JUMPI PUSH1 0x40 MLOAD PUSH32 0x8C379A000000000000000000000000000000000000000000000000000000000 DUP2 MSTORE PUSH1 0x4 ADD PUSH2 0x411 SWAP1 PUSH2 0x99E JUMP JUMPDEST PUSH1 0x40 MLOAD DUP1 SWAP2 SUB SWAP1 REVERT JUMPDEST PUSH0 CALLER PUSH20 0xFFFFFFFFFFFFFFFFFFFFFFFFFFFFFFFFFFFFFFFF AND SELFBALANCE PUSH1 0x40 MLOAD PUSH2 0x43F SWAP1 PUSH2 0x9E9 JUMP JUMPDEST PUSH0 PUSH1 0x40 MLOAD DUP1 DUP4 SUB DUP2 DUP6 DUP8 GAS CALL SWAP3 POP POP POP RETURNDATASIZE DUP1 PUSH0 DUP2 EQ PUSH2 0x479 JUMPI PUSH1 0x40 MLOAD SWAP2 POP PUSH1 0x1F NOT PUSH1 0x3F RETURNDATASIZE ADD AND DUP3 ADD PUSH1 0x40 MSTORE RETURNDATASIZE DUP3 MSTORE RETURNDATASIZE PUSH0 PUSH1 0x20 DUP5 ADD RETURNDATACOPY PUSH2 0x47E JUMP JUMPDEST PUSH1 0x60 SWAP2 POP JUMPDEST POP POP SWAP1 POP DUP1 PUSH2 0x4C2 JUMPI PUSH1 0x40 MLOAD PUSH32 0x8C379A000000000000000000000000000000000000000000000000000000000 DUP2 MSTORE PUSH1 0x4 ADD PUSH2 0x4B9 SWAP1 PUSH2 0xA47 JUMP JUMPDEST PUSH1 0x40 MLOAD DUP1 SWAP2 SUB SWAP1 REVERT JUMPDEST POP POP JUMP JUMPDEST PUSH1 0x1 PUSH1 0x20 MSTORE DUP1 PUSH0 MSTORE PUSH1 0x40 PUSH0 KECCAK256 PUSH0 SWAP2 POP SWAP1 POP SLOAD DUP2 JUMP JUMPDEST PUSH9 0x2B5E3AF16B1880000 DUP2 JUMP JUMPDEST PUSH0 DUP2 DUP2 SLOAD DUP2 LT PUSH2 0x4F6 JUMPI PUSH0 DUP1 REVERT JUMPDEST SWAP1 PUSH0 MSTORE PUSH1 0x20 PUSH0 KECCAK256 ADD PUSH0 SWAP2 POP SLOAD SWAP1 PUSH2 0x100 EXP SWAP1 DIV PUSH20 0xFFFFFFFFFFFFFFFFFFFFFFFFFFFFFFFFFFFFFFFF AND DUP2 JUMP JUMPDEST PUSH32 0x0 DUP2 JUMP JUMPDEST PUSH0 DUP1 PUSH2 0x550 PUSH2 0x57E JUMP JUMPDEST SWAP1 POP PUSH0 PUSH8 0xDE0B6B3A7640000 DUP5 DUP4 PUSH2 0x568 SWAP2 SWAP1 PUSH2 0xA65 JUMP JUMPDEST PUSH2 0x572 SWAP2 SWAP1 PUSH2 0xAD3 JUMP JUMPDEST SWAP1 POP DUP1 SWAP3 POP POP POP SWAP2 SWAP1 POP JUMP JUMPDEST PUSH0 DUP1 PUSH20 0x694AA1769357215DE4FAC081BF1F309ADC325306 SWAP1 POP PUSH0 DUP2 PUSH20 0xFFFFFFFFFFFFFFFFFFFFFFFFFFFFFFFFFFFFFFFF AND PUSH4 0xFEAF968C PUSH1 0x40 MLOAD DUP2 PUSH4 0xFFFFFFFF AND PUSH1 0xE0 SHL DUP2 MSTORE PUSH1 0x4 ADD PUSH1 0xA0 PUSH1 0x40 MLOAD DUP1 DUP4 SUB DUP2 DUP7 GAS STATICCALL ISZERO DUP1 ISZERO PUSH2 0x5E1 JUMPI RETURNDATASIZE PUSH0 DUP1 RETURNDATACOPY RETURNDATASIZE PUSH0 REVERT JUMPDEST POP POP POP POP PUSH1 0x40 MLOAD RETURNDATASIZE PUSH1 0x1F NOT PUSH1 0x1F DUP3 ADD AND DUP3 ADD DUP1 PUSH1 0x40 MSTORE POP DUP2 ADD SWAP1 PUSH2 0x605 SWAP2 SWAP1 PUSH2 0xB89 JUMP JUMPDEST POP POP POP SWAP2 POP POP PUSH5 0x2540BE400 DUP2 PUSH2 0x61C SWAP2 SWAP1 PUSH2 0xA65 JUMP JUMPDEST SWAP3 POP POP POP SWAP1 JUMP JUMPDEST DUP3 DUP1 SLOAD DUP3 DUP3 SSTORE SWAP1 PUSH0 MSTORE PUSH1 0x20 PUSH0 KECCAK256 SWAP1 DUP2 ADD SWAP3 DUP3 ISZERO PUSH2 0x699 JUMPI SWAP2 PUSH1 0x20 MUL DUP3 ADD JUMPDEST DUP3 DUP2 GT ISZERO PUSH2 0x698 JUMPI DUP3 MLOAD DUP3 PUSH0 PUSH2 0x100 EXP DUP2 SLOAD DUP2 PUSH20 0xFFFFFFFFFFFFFFFFFFFFFFFFFFFFFFFFFFFFFFFF MUL NOT AND SWAP1 DUP4 PUSH20 0xFFFFFFFFFFFFFFFFFFFFFFFFFFFFFFFFFFFFFFFF AND MUL OR SWAP1 SSTORE POP SWAP2 PUSH1 0x20 ADD SWAP2 SWAP1 PUSH1 0x1 ADD SWAP1 PUSH2 0x641 JUMP JUMPDEST JUMPDEST POP SWAP1 POP PUSH2 0x6A6 SWAP2 SWAP1 PUSH2 0x6AA JUMP JUMPDEST POP SWAP1 JUMP JUMPDEST JUMPDEST DUP1 DUP3 GT ISZERO PUSH2 0x6C1 JUMPI PUSH0 DUP2 PUSH0 SWAP1 SSTORE POP PUSH1 0x1 ADD PUSH2 0x6AB JUMP JUMPDEST POP SWAP1 JUMP JUMPDEST PUSH0 DUP1 REVERT JUMPDEST PUSH0 PUSH20 0xFFFFFFFFFFFFFFFFFFFFFFFFFFFFFFFFFFFFFFFF DUP3 AND SWAP1 POP SWAP2 SWAP1 POP JUMP JUMPDEST PUSH0 PUSH2 0x6F2 DUP3 PUSH2 0x6C9 JUMP JUMPDEST SWAP1 POP SWAP2 SWAP1 POP JUMP JUMPDEST PUSH2 0x702 DUP2 PUSH2 0x6E8 JUMP JUMPDEST DUP2 EQ PUSH2 0x70C JUMPI PUSH0 DUP1 REVERT JUMPDEST POP JUMP JUMPDEST PUSH0 DUP2 CALLDATALOAD SWAP1 POP PUSH2 0x71D DUP2 PUSH2 0x6F9 JUMP JUMPDEST SWAP3 SWAP2 POP POP JUMP JUMPDEST PUSH0 PUSH1 0x20 DUP3 DUP5 SUB SLT ISZERO PUSH2 0x738 JUMPI PUSH2 0x737 PUSH2 0x6C5 JUMP JUMPDEST JUMPDEST PUSH0 PUSH2 0x745 DUP5 DUP3 DUP6 ADD PUSH2 0x70F JUMP JUMPDEST SWAP2 POP POP SWAP3 SWAP2 POP POP JUMP JUMPDEST PUSH0 DUP2 SWAP1 POP SWAP2 SWAP1 POP JUMP JUMPDEST PUSH2 0x760 DUP2 PUSH2 0x74E JUMP JUMPDEST DUP3 MSTORE POP POP JUMP JUMPDEST PUSH0 PUSH1 0x20 DUP3 ADD SWAP1 POP PUSH2 0x779 PUSH0 DUP4 ADD DUP5 PUSH2 0x757 JUMP JUMPDEST SWAP3 SWAP2 POP POP JUMP JUMPDEST PUSH2 0x788 DUP2 PUSH2 0x74E JUMP JUMPDEST DUP2 EQ PUSH2 0x792 JUMPI PUSH0 DUP1 REVERT JUMPDEST POP JUMP JUMPDEST PUSH0 DUP2 CALLDATALOAD SWAP1 POP PUSH2 0x7A3 DUP2 PUSH2 0x77F JUMP JUMPDEST SWAP3 SWAP2 POP POP JUMP JUMPDEST PUSH0 PUSH1 0x20 DUP3 DUP5 SUB SLT ISZERO PUSH2 0x7BE JUMPI PUSH2 0x7BD PUSH2 0x6C5 JUMP JUMPDEST JUMPDEST PUSH0 PUSH2 0x7CB DUP5 DUP3 DUP6 ADD PUSH2 0x795 JUMP JUMPDEST SWAP2 POP POP SWAP3 SWAP2 POP POP JUMP JUMPDEST PUSH2 0x7DD DUP2 PUSH2 0x6E8 JUMP JUMPDEST DUP3 MSTORE POP POP JUMP JUMPDEST PUSH0 PUSH1 0x20 DUP3 ADD SWAP1 POP PUSH2 0x7F6 PUSH0 DUP4 ADD DUP5 PUSH2 0x7D4 JUMP JUMPDEST SWAP3 SWAP2 POP POP JUMP JUMPDEST PUSH0 DUP3 DUP3 MSTORE PUSH1 0x20 DUP3 ADD SWAP1 POP SWAP3 SWAP2 POP POP JUMP JUMPDEST PUSH32 0x546865206D696E696D756D20616D6F756E74206F662076616C7565206973206E PUSH0 DUP3 ADD MSTORE PUSH32 0x6F74206D65740000000000000000000000000000000000000000000000000000 PUSH1 0x20 DUP3 ADD MSTORE POP JUMP JUMPDEST PUSH0 PUSH2 0x866 PUSH1 0x26 DUP4 PUSH2 0x7FC JUMP JUMPDEST SWAP2 POP PUSH2 0x871 DUP3 PUSH2 0x80C JUMP JUMPDEST PUSH1 0x40 DUP3 ADD SWAP1 POP SWAP2 SWAP1 POP JUMP JUMPDEST PUSH0 PUSH1 0x20 DUP3 ADD SWAP1 POP DUP2 DUP2 SUB PUSH0 DUP4 ADD MSTORE PUSH2 0x893 DUP2 PUSH2 0x85A JUMP JUMPDEST SWAP1 POP SWAP2 SWAP1 POP JUMP JUMPDEST PUSH32 0x4E487B7100000000000000000000000000000000000000000000000000000000 PUSH0 MSTORE PUSH1 0x11 PUSH1 0x4 MSTORE PUSH1 0x24 PUSH0 REVERT JUMPDEST PUSH0 PUSH2 0x8D1 DUP3 PUSH2 0x74E JUMP JUMPDEST SWAP2 POP PUSH2 0x8DC DUP4 PUSH2 0x74E JUMP JUMPDEST SWAP3 POP DUP3 DUP3 ADD SWAP1 POP DUP1 DUP3 GT ISZERO PUSH2 0x8F4 JUMPI PUSH2 0x8F3 PUSH2 0x89A JUMP JUMPDEST JUMPDEST SWAP3 SWAP2 POP POP JUMP JUMPDEST PUSH32 0x4E487B7100000000000000000000000000000000000000000000000000000000 PUSH0 MSTORE PUSH1 0x32 PUSH1 0x4 MSTORE PUSH1 0x24 PUSH0 REVERT JUMPDEST PUSH32 0x4E487B7100000000000000000000000000000000000000000000000000000000 PUSH0 MSTORE PUSH1 0x41 PUSH1 0x4 MSTORE PUSH1 0x24 PUSH0 REVERT JUMPDEST PUSH32 0x53656E64206661696C6564000000000000000000000000000000000000000000 PUSH0 DUP3 ADD MSTORE POP JUMP JUMPDEST PUSH0 PUSH2 0x988 PUSH1 0xB DUP4 PUSH2 0x7FC JUMP JUMPDEST SWAP2 POP PUSH2 0x993 DUP3 PUSH2 0x954 JUMP JUMPDEST PUSH1 0x20 DUP3 ADD SWAP1 POP SWAP2 SWAP1 POP JUMP JUMPDEST PUSH0 PUSH1 0x20 DUP3 ADD SWAP1 POP DUP2 DUP2 SUB PUSH0 DUP4 ADD MSTORE PUSH2 0x9B5 DUP2 PUSH2 0x97C JUMP JUMPDEST SWAP1 POP SWAP2 SWAP1 POP JUMP JUMPDEST PUSH0 DUP2 SWAP1 POP SWAP3 SWAP2 POP POP JUMP JUMPDEST POP JUMP JUMPDEST PUSH0 PUSH2 0x9D4 PUSH0 DUP4 PUSH2 0x9BC JUMP JUMPDEST SWAP2 POP PUSH2 0x9DF DUP3 PUSH2 0x9C6 JUMP JUMPDEST PUSH0 DUP3 ADD SWAP1 POP SWAP2 SWAP1 POP JUMP JUMPDEST PUSH0 PUSH2 0x9F3 DUP3 PUSH2 0x9C9 JUMP JUMPDEST SWAP2 POP DUP2 SWAP1 POP SWAP2 SWAP1 POP JUMP JUMPDEST PUSH32 0x43616C6C206661696C6564000000000000000000000000000000000000000000 PUSH0 DUP3 ADD MSTORE POP JUMP JUMPDEST PUSH0 PUSH2 0xA31 PUSH1 0xB DUP4 PUSH2 0x7FC JUMP JUMPDEST SWAP2 POP PUSH2 0xA3C DUP3 PUSH2 0x9FD JUMP JUMPDEST PUSH1 0x20 DUP3 ADD SWAP1 POP SWAP2 SWAP1 POP JUMP JUMPDEST PUSH0 PUSH1 0x20 DUP3 ADD SWAP1 POP DUP2 DUP2 SUB PUSH0 DUP4 ADD MSTORE PUSH2 0xA5E DUP2 PUSH2 0xA25 JUMP JUMPDEST SWAP1 POP SWAP2 SWAP1 POP JUMP JUMPDEST PUSH0 PUSH2 0xA6F DUP3 PUSH2 0x74E JUMP JUMPDEST SWAP2 POP PUSH2 0xA7A DUP4 PUSH2 0x74E JUMP JUMPDEST SWAP3 POP DUP3 DUP3 MUL PUSH2 0xA88 DUP2 PUSH2 0x74E JUMP JUMPDEST SWAP2 POP DUP3 DUP3 DIV DUP5 EQ DUP4 ISZERO OR PUSH2 0xA9F JUMPI PUSH2 0xA9E PUSH2 0x89A JUMP JUMPDEST JUMPDEST POP SWAP3 SWAP2 POP POP JUMP JUMPDEST PUSH32 0x4E487B7100000000000000000000000000000000000000000000000000000000 PUSH0 MSTORE PUSH1 0x12 PUSH1 0x4 MSTORE PUSH1 0x24 PUSH0 REVERT JUMPDEST PUSH0 PUSH2 0xADD DUP3 PUSH2 0x74E JUMP JUMPDEST SWAP2 POP PUSH2 0xAE8 DUP4 PUSH2 0x74E JUMP JUMPDEST SWAP3 POP DUP3 PUSH2 0xAF8 JUMPI PUSH2 0xAF7 PUSH2 0xAA6 JUMP JUMPDEST JUMPDEST DUP3 DUP3 DIV SWAP1 POP SWAP3 SWAP2 POP POP JUMP JUMPDEST PUSH0 PUSH10 0xFFFFFFFFFFFFFFFFFFFF DUP3 AND SWAP1 POP SWAP2 SWAP1 POP JUMP JUMPDEST PUSH2 0xB21 DUP2 PUSH2 0xB03 JUMP JUMPDEST DUP2 EQ PUSH2 0xB2B JUMPI PUSH0 DUP1 REVERT JUMPDEST POP JUMP JUMPDEST PUSH0 DUP2 MLOAD SWAP1 POP PUSH2 0xB3C DUP2 PUSH2 0xB18 JUMP JUMPDEST SWAP3 SWAP2 POP POP JUMP JUMPDEST PUSH0 DUP2 SWAP1 POP SWAP2 SWAP1 POP JUMP JUMPDEST PUSH2 0xB54 DUP2 PUSH2 0xB42 JUMP JUMPDEST DUP2 EQ PUSH2 0xB5E JUMPI PUSH0 DUP1 REVERT JUMPDEST POP JUMP JUMPDEST PUSH0 DUP2 MLOAD SWAP1 POP PUSH2 0xB6F DUP2 PUSH2 0xB4B JUMP JUMPDEST SWAP3 SWAP2 POP POP JUMP JUMPDEST PUSH0 DUP2 MLOAD SWAP1 POP PUSH2 0xB83 DUP2 PUSH2 0x77F JUMP JUMPDEST SWAP3 SWAP2 POP POP JUMP JUMPDEST PUSH0 DUP1 PUSH0 DUP1 PUSH0 PUSH1 0xA0 DUP7 DUP9 SUB SLT ISZERO PUSH2 0xBA2 JUMPI PUSH2 0xBA1 PUSH2 0x6C5 JUMP JUMPDEST JUMPDEST PUSH0 PUSH2 0xBAF DUP9 DUP3 DUP10 ADD PUSH2 0xB2E JUMP JUMPDEST SWAP6 POP POP PUSH1 0x20 PUSH2 0xBC0 DUP9 DUP3 DUP10 ADD PUSH2 0xB61 JUMP JUMPDEST SWAP5 POP POP PUSH1 0x40 PUSH2 0xBD1 DUP9 DUP3 DUP10 ADD PUSH2 0xB75 JUMP JUMPDEST SWAP4 POP POP PUSH1 0x60 PUSH2 0xBE2 DUP9 DUP3 DUP10 ADD PUSH2 0xB75 JUMP JUMPDEST SWAP3 POP POP PUSH1 0x80 PUSH2 0xBF3 DUP9 DUP3 DUP10 ADD PUSH2 0xB2E JUMP JUMPDEST SWAP2 POP POP SWAP3 SWAP6 POP SWAP3 SWAP6 SWAP1 SWAP4 POP JUMP INVALID LOG2 PUSH5 0x6970667358 0x22 SLT KECCAK256 0x4D PUSH20 0xE26DC09AAA85BCE16C2C003949AA186817C6568F JUMP 0xC6 ADDRESS 0xD0 0xEF 0xBA CALLDATALOAD PUSH3 0xDAD164 PUSH20 0x6F6C634300081800330000000000000000000000 "
				},
				"gasEstimates": {
					"creation": {
						"codeDepositCost": "625200",
						"executionCost": "infinite",
						"totalCost": "infinite"
					},
					"external": {
						"": "infinite",
						"MINIMUM_USD()": "347",
						"addressToAmountFunded(address)": "2802",
						"fund()": "infinite",
						"funders(uint256)": "5009",
						"i_Owner()": "infinite",
						"withdraw()": "infinite"
					}
				},
				"methodIdentifiers": {
					"MINIMUM_USD()": "6b69a592",
					"addressToAmountFunded(address)": "3e47d6f3",
					"fund()": "b60d4288",
					"funders(uint256)": "dc0d3dff",
					"i_Owner()": "e667b0bf",
					"withdraw()": "3ccfd60b"
				}
			},
			"storageLayout": {
				"storage": [
					{
						"astId": 62,
						"contract": "contracts/FundMe.sol:FundMe",
						"label": "funders",
						"offset": 0,
						"slot": "0",
						"type": "t_array(t_address)dyn_storage"
					},
					{
						"astId": 66,
						"contract": "contracts/FundMe.sol:FundMe",
						"label": "addressToAmountFunded",
						"offset": 0,
						"slot": "1",
						"type": "t_mapping(t_address,t_uint256)"
					}
				],
				"types": {
					"t_address": {
						"encoding": "inplace",
						"label": "address",
						"numberOfBytes": "20"
					},
					"t_array(t_address)dyn_storage": {
						"base": "t_address",
						"encoding": "dynamic_array",
						"label": "address[]",
						"numberOfBytes": "32"
					},
					"t_mapping(t_address,t_uint256)": {
						"encoding": "mapping",
						"key": "t_address",
						"label": "mapping(address => uint256)",
						"numberOfBytes": "32",
						"value": "t_uint256"
					},
					"t_uint256": {
						"encoding": "inplace",
						"label": "uint256",
						"numberOfBytes": "32"
					}
				}
			},
			"userdoc": {
				"kind": "user",
				"methods": {},
				"version": 1
			}
		}
	}
}